{
  "abi": [
    {
      "inputs": [
        {
          "internalType": "contract IVotes",
          "name": "_token",
          "type": "address"
        },
        {
          "internalType": "contract TimelockController",
          "name": "_timelock",
          "type": "address"
        }
      ],
      "stateMutability": "nonpayable",
      "type": "constructor"
    },
    {
      "inputs": [],
      "name": "Empty",
      "type": "error"
    },
    {
      "inputs": [],
      "name": "InvalidShortString",
      "type": "error"
    },
    {
      "inputs": [
        {
          "internalType": "string",
          "name": "str",
          "type": "string"
        }
      ],
      "name": "StringTooLong",
      "type": "error"
    },
    {
      "anonymous": false,
      "inputs": [],
      "name": "EIP712DomainChanged",
      "type": "event"
    },
    {
      "anonymous": false,
      "inputs": [
        {
          "indexed": false,
          "internalType": "uint256",
          "name": "proposalId",
          "type": "uint256"
        }
      ],
      "name": "ProposalCanceled",
      "type": "event"
    },
    {
      "anonymous": false,
      "inputs": [
        {
          "indexed": false,
          "internalType": "uint256",
          "name": "proposalId",
          "type": "uint256"
        },
        {
          "indexed": false,
          "internalType": "address",
          "name": "proposer",
          "type": "address"
        },
        {
          "indexed": false,
          "internalType": "address[]",
          "name": "targets",
          "type": "address[]"
        },
        {
          "indexed": false,
          "internalType": "uint256[]",
          "name": "values",
          "type": "uint256[]"
        },
        {
          "indexed": false,
          "internalType": "string[]",
          "name": "signatures",
          "type": "string[]"
        },
        {
          "indexed": false,
          "internalType": "bytes[]",
          "name": "calldatas",
          "type": "bytes[]"
        },
        {
          "indexed": false,
          "internalType": "uint256",
          "name": "voteStart",
          "type": "uint256"
        },
        {
          "indexed": false,
          "internalType": "uint256",
          "name": "voteEnd",
          "type": "uint256"
        },
        {
          "indexed": false,
          "internalType": "string",
          "name": "description",
          "type": "string"
        }
      ],
      "name": "ProposalCreated",
      "type": "event"
    },
    {
      "anonymous": false,
      "inputs": [
        {
          "indexed": false,
          "internalType": "uint256",
          "name": "proposalId",
          "type": "uint256"
        }
      ],
      "name": "ProposalExecuted",
      "type": "event"
    },
    {
      "anonymous": false,
      "inputs": [
        {
          "indexed": false,
          "internalType": "uint256",
          "name": "proposalId",
          "type": "uint256"
        },
        {
          "indexed": false,
          "internalType": "uint256",
          "name": "eta",
          "type": "uint256"
        }
      ],
      "name": "ProposalQueued",
      "type": "event"
    },
    {
      "anonymous": false,
      "inputs": [
        {
          "indexed": false,
          "internalType": "uint256",
          "name": "oldProposalThreshold",
          "type": "uint256"
        },
        {
          "indexed": false,
          "internalType": "uint256",
          "name": "newProposalThreshold",
          "type": "uint256"
        }
      ],
      "name": "ProposalThresholdSet",
      "type": "event"
    },
    {
      "anonymous": false,
      "inputs": [
        {
          "indexed": false,
          "internalType": "uint256",
          "name": "oldQuorumNumerator",
          "type": "uint256"
        },
        {
          "indexed": false,
          "internalType": "uint256",
          "name": "newQuorumNumerator",
          "type": "uint256"
        }
      ],
      "name": "QuorumNumeratorUpdated",
      "type": "event"
    },
    {
      "anonymous": false,
      "inputs": [
        {
          "indexed": false,
          "internalType": "address",
          "name": "oldTimelock",
          "type": "address"
        },
        {
          "indexed": false,
          "internalType": "address",
          "name": "newTimelock",
          "type": "address"
        }
      ],
      "name": "TimelockChange",
      "type": "event"
    },
    {
      "anonymous": false,
      "inputs": [
        {
          "indexed": true,
          "internalType": "address",
          "name": "voter",
          "type": "address"
        },
        {
          "indexed": false,
          "internalType": "uint256",
          "name": "proposalId",
          "type": "uint256"
        },
        {
          "indexed": false,
          "internalType": "uint8",
          "name": "support",
          "type": "uint8"
        },
        {
          "indexed": false,
          "internalType": "uint256",
          "name": "weight",
          "type": "uint256"
        },
        {
          "indexed": false,
          "internalType": "string",
          "name": "reason",
          "type": "string"
        }
      ],
      "name": "VoteCast",
      "type": "event"
    },
    {
      "anonymous": false,
      "inputs": [
        {
          "indexed": true,
          "internalType": "address",
          "name": "voter",
          "type": "address"
        },
        {
          "indexed": false,
          "internalType": "uint256",
          "name": "proposalId",
          "type": "uint256"
        },
        {
          "indexed": false,
          "internalType": "uint8",
          "name": "support",
          "type": "uint8"
        },
        {
          "indexed": false,
          "internalType": "uint256",
          "name": "weight",
          "type": "uint256"
        },
        {
          "indexed": false,
          "internalType": "string",
          "name": "reason",
          "type": "string"
        },
        {
          "indexed": false,
          "internalType": "bytes",
          "name": "params",
          "type": "bytes"
        }
      ],
      "name": "VoteCastWithParams",
      "type": "event"
    },
    {
      "anonymous": false,
      "inputs": [
        {
          "indexed": false,
          "internalType": "uint256",
          "name": "oldVotingDelay",
          "type": "uint256"
        },
        {
          "indexed": false,
          "internalType": "uint256",
          "name": "newVotingDelay",
          "type": "uint256"
        }
      ],
      "name": "VotingDelaySet",
      "type": "event"
    },
    {
      "anonymous": false,
      "inputs": [
        {
          "indexed": false,
          "internalType": "uint256",
          "name": "oldVotingPeriod",
          "type": "uint256"
        },
        {
          "indexed": false,
          "internalType": "uint256",
          "name": "newVotingPeriod",
          "type": "uint256"
        }
      ],
      "name": "VotingPeriodSet",
      "type": "event"
    },
    {
      "inputs": [],
      "name": "BALLOT_TYPEHASH",
      "outputs": [
        {
          "internalType": "bytes32",
          "name": "",
          "type": "bytes32"
        }
      ],
      "stateMutability": "view",
      "type": "function"
    },
    {
      "inputs": [],
      "name": "CLOCK_MODE",
      "outputs": [
        {
          "internalType": "string",
          "name": "",
          "type": "string"
        }
      ],
      "stateMutability": "view",
      "type": "function"
    },
    {
      "inputs": [],
      "name": "COUNTING_MODE",
      "outputs": [
        {
          "internalType": "string",
          "name": "",
          "type": "string"
        }
      ],
      "stateMutability": "pure",
      "type": "function"
    },
    {
      "inputs": [],
      "name": "EXTENDED_BALLOT_TYPEHASH",
      "outputs": [
        {
          "internalType": "bytes32",
          "name": "",
          "type": "bytes32"
        }
      ],
      "stateMutability": "view",
      "type": "function"
    },
    {
      "inputs": [
        {
          "internalType": "address[]",
          "name": "targets",
          "type": "address[]"
        },
        {
          "internalType": "uint256[]",
          "name": "values",
          "type": "uint256[]"
        },
        {
          "internalType": "bytes[]",
          "name": "calldatas",
          "type": "bytes[]"
        },
        {
          "internalType": "bytes32",
          "name": "descriptionHash",
          "type": "bytes32"
        }
      ],
      "name": "cancel",
      "outputs": [
        {
          "internalType": "uint256",
          "name": "",
          "type": "uint256"
        }
      ],
      "stateMutability": "nonpayable",
      "type": "function"
    },
    {
      "inputs": [
        {
          "internalType": "uint256",
          "name": "proposalId",
          "type": "uint256"
        },
        {
          "internalType": "uint8",
          "name": "support",
          "type": "uint8"
        }
      ],
      "name": "castVote",
      "outputs": [
        {
          "internalType": "uint256",
          "name": "",
          "type": "uint256"
        }
      ],
      "stateMutability": "nonpayable",
      "type": "function"
    },
    {
      "inputs": [
        {
          "internalType": "uint256",
          "name": "proposalId",
          "type": "uint256"
        },
        {
          "internalType": "uint8",
          "name": "support",
          "type": "uint8"
        },
        {
          "internalType": "uint8",
          "name": "v",
          "type": "uint8"
        },
        {
          "internalType": "bytes32",
          "name": "r",
          "type": "bytes32"
        },
        {
          "internalType": "bytes32",
          "name": "s",
          "type": "bytes32"
        }
      ],
      "name": "castVoteBySig",
      "outputs": [
        {
          "internalType": "uint256",
          "name": "",
          "type": "uint256"
        }
      ],
      "stateMutability": "nonpayable",
      "type": "function"
    },
    {
      "inputs": [
        {
          "internalType": "uint256",
          "name": "proposalId",
          "type": "uint256"
        },
        {
          "internalType": "uint8",
          "name": "support",
          "type": "uint8"
        },
        {
          "internalType": "string",
          "name": "reason",
          "type": "string"
        }
      ],
      "name": "castVoteWithReason",
      "outputs": [
        {
          "internalType": "uint256",
          "name": "",
          "type": "uint256"
        }
      ],
      "stateMutability": "nonpayable",
      "type": "function"
    },
    {
      "inputs": [
        {
          "internalType": "uint256",
          "name": "proposalId",
          "type": "uint256"
        },
        {
          "internalType": "uint8",
          "name": "support",
          "type": "uint8"
        },
        {
          "internalType": "string",
          "name": "reason",
          "type": "string"
        },
        {
          "internalType": "bytes",
          "name": "params",
          "type": "bytes"
        }
      ],
      "name": "castVoteWithReasonAndParams",
      "outputs": [
        {
          "internalType": "uint256",
          "name": "",
          "type": "uint256"
        }
      ],
      "stateMutability": "nonpayable",
      "type": "function"
    },
    {
      "inputs": [
        {
          "internalType": "uint256",
          "name": "proposalId",
          "type": "uint256"
        },
        {
          "internalType": "uint8",
          "name": "support",
          "type": "uint8"
        },
        {
          "internalType": "string",
          "name": "reason",
          "type": "string"
        },
        {
          "internalType": "bytes",
          "name": "params",
          "type": "bytes"
        },
        {
          "internalType": "uint8",
          "name": "v",
          "type": "uint8"
        },
        {
          "internalType": "bytes32",
          "name": "r",
          "type": "bytes32"
        },
        {
          "internalType": "bytes32",
          "name": "s",
          "type": "bytes32"
        }
      ],
      "name": "castVoteWithReasonAndParamsBySig",
      "outputs": [
        {
          "internalType": "uint256",
          "name": "",
          "type": "uint256"
        }
      ],
      "stateMutability": "nonpayable",
      "type": "function"
    },
    {
      "inputs": [],
      "name": "clock",
      "outputs": [
        {
          "internalType": "uint48",
          "name": "",
          "type": "uint48"
        }
      ],
      "stateMutability": "view",
      "type": "function"
    },
    {
      "inputs": [],
      "name": "eip712Domain",
      "outputs": [
        {
          "internalType": "bytes1",
          "name": "fields",
          "type": "bytes1"
        },
        {
          "internalType": "string",
          "name": "name",
          "type": "string"
        },
        {
          "internalType": "string",
          "name": "version",
          "type": "string"
        },
        {
          "internalType": "uint256",
          "name": "chainId",
          "type": "uint256"
        },
        {
          "internalType": "address",
          "name": "verifyingContract",
          "type": "address"
        },
        {
          "internalType": "bytes32",
          "name": "salt",
          "type": "bytes32"
        },
        {
          "internalType": "uint256[]",
          "name": "extensions",
          "type": "uint256[]"
        }
      ],
      "stateMutability": "view",
      "type": "function"
    },
    {
      "inputs": [
        {
          "internalType": "address[]",
          "name": "targets",
          "type": "address[]"
        },
        {
          "internalType": "uint256[]",
          "name": "values",
          "type": "uint256[]"
        },
        {
          "internalType": "bytes[]",
          "name": "calldatas",
          "type": "bytes[]"
        },
        {
          "internalType": "bytes32",
          "name": "descriptionHash",
          "type": "bytes32"
        }
      ],
      "name": "execute",
      "outputs": [
        {
          "internalType": "uint256",
          "name": "",
          "type": "uint256"
        }
      ],
      "stateMutability": "payable",
      "type": "function"
    },
    {
      "inputs": [
        {
          "internalType": "address",
          "name": "account",
          "type": "address"
        },
        {
          "internalType": "uint256",
          "name": "timepoint",
          "type": "uint256"
        }
      ],
      "name": "getVotes",
      "outputs": [
        {
          "internalType": "uint256",
          "name": "",
          "type": "uint256"
        }
      ],
      "stateMutability": "view",
      "type": "function"
    },
    {
      "inputs": [
        {
          "internalType": "address",
          "name": "account",
          "type": "address"
        },
        {
          "internalType": "uint256",
          "name": "timepoint",
          "type": "uint256"
        },
        {
          "internalType": "bytes",
          "name": "params",
          "type": "bytes"
        }
      ],
      "name": "getVotesWithParams",
      "outputs": [
        {
          "internalType": "uint256",
          "name": "",
          "type": "uint256"
        }
      ],
      "stateMutability": "view",
      "type": "function"
    },
    {
      "inputs": [
        {
          "internalType": "uint256",
          "name": "proposalId",
          "type": "uint256"
        },
        {
          "internalType": "address",
          "name": "account",
          "type": "address"
        }
      ],
      "name": "hasVoted",
      "outputs": [
        {
          "internalType": "bool",
          "name": "",
          "type": "bool"
        }
      ],
      "stateMutability": "view",
      "type": "function"
    },
    {
      "inputs": [
        {
          "internalType": "address[]",
          "name": "targets",
          "type": "address[]"
        },
        {
          "internalType": "uint256[]",
          "name": "values",
          "type": "uint256[]"
        },
        {
          "internalType": "bytes[]",
          "name": "calldatas",
          "type": "bytes[]"
        },
        {
          "internalType": "bytes32",
          "name": "descriptionHash",
          "type": "bytes32"
        }
      ],
      "name": "hashProposal",
      "outputs": [
        {
          "internalType": "uint256",
          "name": "",
          "type": "uint256"
        }
      ],
      "stateMutability": "pure",
      "type": "function"
    },
    {
      "inputs": [],
      "name": "name",
      "outputs": [
        {
          "internalType": "string",
          "name": "",
          "type": "string"
        }
      ],
      "stateMutability": "view",
      "type": "function"
    },
    {
      "inputs": [
        {
          "internalType": "address",
          "name": "",
          "type": "address"
        },
        {
          "internalType": "address",
          "name": "",
          "type": "address"
        },
        {
          "internalType": "uint256[]",
          "name": "",
          "type": "uint256[]"
        },
        {
          "internalType": "uint256[]",
          "name": "",
          "type": "uint256[]"
        },
        {
          "internalType": "bytes",
          "name": "",
          "type": "bytes"
        }
      ],
      "name": "onERC1155BatchReceived",
      "outputs": [
        {
          "internalType": "bytes4",
          "name": "",
          "type": "bytes4"
        }
      ],
      "stateMutability": "nonpayable",
      "type": "function"
    },
    {
      "inputs": [
        {
          "internalType": "address",
          "name": "",
          "type": "address"
        },
        {
          "internalType": "address",
          "name": "",
          "type": "address"
        },
        {
          "internalType": "uint256",
          "name": "",
          "type": "uint256"
        },
        {
          "internalType": "uint256",
          "name": "",
          "type": "uint256"
        },
        {
          "internalType": "bytes",
          "name": "",
          "type": "bytes"
        }
      ],
      "name": "onERC1155Received",
      "outputs": [
        {
          "internalType": "bytes4",
          "name": "",
          "type": "bytes4"
        }
      ],
      "stateMutability": "nonpayable",
      "type": "function"
    },
    {
      "inputs": [
        {
          "internalType": "address",
          "name": "",
          "type": "address"
        },
        {
          "internalType": "address",
          "name": "",
          "type": "address"
        },
        {
          "internalType": "uint256",
          "name": "",
          "type": "uint256"
        },
        {
          "internalType": "bytes",
          "name": "",
          "type": "bytes"
        }
      ],
      "name": "onERC721Received",
      "outputs": [
        {
          "internalType": "bytes4",
          "name": "",
          "type": "bytes4"
        }
      ],
      "stateMutability": "nonpayable",
      "type": "function"
    },
    {
      "inputs": [
        {
          "internalType": "uint256",
          "name": "proposalId",
          "type": "uint256"
        }
      ],
      "name": "proposalDeadline",
      "outputs": [
        {
          "internalType": "uint256",
          "name": "",
          "type": "uint256"
        }
      ],
      "stateMutability": "view",
      "type": "function"
    },
    {
      "inputs": [
        {
          "internalType": "uint256",
          "name": "proposalId",
          "type": "uint256"
        }
      ],
      "name": "proposalEta",
      "outputs": [
        {
          "internalType": "uint256",
          "name": "",
          "type": "uint256"
        }
      ],
      "stateMutability": "view",
      "type": "function"
    },
    {
      "inputs": [
        {
          "internalType": "uint256",
          "name": "proposalId",
          "type": "uint256"
        }
      ],
      "name": "proposalProposer",
      "outputs": [
        {
          "internalType": "address",
          "name": "",
          "type": "address"
        }
      ],
      "stateMutability": "view",
      "type": "function"
    },
    {
      "inputs": [
        {
          "internalType": "uint256",
          "name": "proposalId",
          "type": "uint256"
        }
      ],
      "name": "proposalSnapshot",
      "outputs": [
        {
          "internalType": "uint256",
          "name": "",
          "type": "uint256"
        }
      ],
      "stateMutability": "view",
      "type": "function"
    },
    {
      "inputs": [],
      "name": "proposalThreshold",
      "outputs": [
        {
          "internalType": "uint256",
          "name": "",
          "type": "uint256"
        }
      ],
      "stateMutability": "view",
      "type": "function"
    },
    {
      "inputs": [
        {
          "internalType": "uint256",
          "name": "proposalId",
          "type": "uint256"
        }
      ],
      "name": "proposalVotes",
      "outputs": [
        {
          "internalType": "uint256",
          "name": "againstVotes",
          "type": "uint256"
        },
        {
          "internalType": "uint256",
          "name": "forVotes",
          "type": "uint256"
        },
        {
          "internalType": "uint256",
          "name": "abstainVotes",
          "type": "uint256"
        }
      ],
      "stateMutability": "view",
      "type": "function"
    },
    {
      "inputs": [
        {
          "internalType": "address[]",
          "name": "targets",
          "type": "address[]"
        },
        {
          "internalType": "uint256[]",
          "name": "values",
          "type": "uint256[]"
        },
        {
          "internalType": "bytes[]",
          "name": "calldatas",
          "type": "bytes[]"
        },
        {
          "internalType": "string",
          "name": "description",
          "type": "string"
        }
      ],
      "name": "propose",
      "outputs": [
        {
          "internalType": "uint256",
          "name": "",
          "type": "uint256"
        }
      ],
      "stateMutability": "nonpayable",
      "type": "function"
    },
    {
      "inputs": [
        {
          "internalType": "address[]",
          "name": "targets",
          "type": "address[]"
        },
        {
          "internalType": "uint256[]",
          "name": "values",
          "type": "uint256[]"
        },
        {
          "internalType": "bytes[]",
          "name": "calldatas",
          "type": "bytes[]"
        },
        {
          "internalType": "bytes32",
          "name": "descriptionHash",
          "type": "bytes32"
        }
      ],
      "name": "queue",
      "outputs": [
        {
          "internalType": "uint256",
          "name": "",
          "type": "uint256"
        }
      ],
      "stateMutability": "nonpayable",
      "type": "function"
    },
    {
      "inputs": [
        {
          "internalType": "uint256",
          "name": "blockNumber",
          "type": "uint256"
        }
      ],
      "name": "quorum",
      "outputs": [
        {
          "internalType": "uint256",
          "name": "",
          "type": "uint256"
        }
      ],
      "stateMutability": "view",
      "type": "function"
    },
    {
      "inputs": [],
      "name": "quorumDenominator",
      "outputs": [
        {
          "internalType": "uint256",
          "name": "",
          "type": "uint256"
        }
      ],
      "stateMutability": "view",
      "type": "function"
    },
    {
      "inputs": [
        {
          "internalType": "uint256",
          "name": "timepoint",
          "type": "uint256"
        }
      ],
      "name": "quorumNumerator",
      "outputs": [
        {
          "internalType": "uint256",
          "name": "",
          "type": "uint256"
        }
      ],
      "stateMutability": "view",
      "type": "function"
    },
    {
      "inputs": [],
      "name": "quorumNumerator",
      "outputs": [
        {
          "internalType": "uint256",
          "name": "",
          "type": "uint256"
        }
      ],
      "stateMutability": "view",
      "type": "function"
    },
    {
      "inputs": [
        {
          "internalType": "address",
          "name": "target",
          "type": "address"
        },
        {
          "internalType": "uint256",
          "name": "value",
          "type": "uint256"
        },
        {
          "internalType": "bytes",
          "name": "data",
          "type": "bytes"
        }
      ],
      "name": "relay",
      "outputs": [],
      "stateMutability": "payable",
      "type": "function"
    },
    {
      "inputs": [
        {
          "internalType": "uint256",
          "name": "newProposalThreshold",
          "type": "uint256"
        }
      ],
      "name": "setProposalThreshold",
      "outputs": [],
      "stateMutability": "nonpayable",
      "type": "function"
    },
    {
      "inputs": [
        {
          "internalType": "uint256",
          "name": "newVotingDelay",
          "type": "uint256"
        }
      ],
      "name": "setVotingDelay",
      "outputs": [],
      "stateMutability": "nonpayable",
      "type": "function"
    },
    {
      "inputs": [
        {
          "internalType": "uint256",
          "name": "newVotingPeriod",
          "type": "uint256"
        }
      ],
      "name": "setVotingPeriod",
      "outputs": [],
      "stateMutability": "nonpayable",
      "type": "function"
    },
    {
      "inputs": [
        {
          "internalType": "uint256",
          "name": "proposalId",
          "type": "uint256"
        }
      ],
      "name": "state",
      "outputs": [
        {
          "internalType": "enum IGovernor.ProposalState",
          "name": "",
          "type": "uint8"
        }
      ],
      "stateMutability": "view",
      "type": "function"
    },
    {
      "inputs": [
        {
          "internalType": "bytes4",
          "name": "interfaceId",
          "type": "bytes4"
        }
      ],
      "name": "supportsInterface",
      "outputs": [
        {
          "internalType": "bool",
          "name": "",
          "type": "bool"
        }
      ],
      "stateMutability": "view",
      "type": "function"
    },
    {
      "inputs": [],
      "name": "timelock",
      "outputs": [
        {
          "internalType": "address",
          "name": "",
          "type": "address"
        }
      ],
      "stateMutability": "view",
      "type": "function"
    },
    {
      "inputs": [],
      "name": "token",
      "outputs": [
        {
          "internalType": "contract IERC5805",
          "name": "",
          "type": "address"
        }
      ],
      "stateMutability": "view",
      "type": "function"
    },
    {
      "inputs": [
        {
          "internalType": "uint256",
          "name": "newQuorumNumerator",
          "type": "uint256"
        }
      ],
      "name": "updateQuorumNumerator",
      "outputs": [],
      "stateMutability": "nonpayable",
      "type": "function"
    },
    {
      "inputs": [
        {
          "internalType": "contract TimelockController",
          "name": "newTimelock",
          "type": "address"
        }
      ],
      "name": "updateTimelock",
      "outputs": [],
      "stateMutability": "nonpayable",
      "type": "function"
    },
    {
      "inputs": [],
      "name": "version",
      "outputs": [
        {
          "internalType": "string",
          "name": "",
          "type": "string"
        }
      ],
      "stateMutability": "view",
      "type": "function"
    },
    {
      "inputs": [],
      "name": "votingDelay",
      "outputs": [
        {
          "internalType": "uint256",
          "name": "",
          "type": "uint256"
        }
      ],
      "stateMutability": "view",
      "type": "function"
    },
    {
      "inputs": [],
      "name": "votingPeriod",
      "outputs": [
        {
          "internalType": "uint256",
          "name": "",
          "type": "uint256"
        }
      ],
      "stateMutability": "view",
      "type": "function"
    },
    {
      "stateMutability": "payable",
      "type": "receive"
    }
  ],
  "bytecode": {
    "object": "0x6101806040523480156200001257600080fd5b50604051620055b2380380620055b28339810160408190526200003591620009cb565b80600483611c2061c4e0600060405180604001604052806008815260200167536d696c6544414f60c01b8152508062000073620001a460201b60201c565b6200008e600083620001bf60201b620018a91790919060201c565b61012052620000ab816001620001bf602090811b620018a917901c565b61014052815160208084019190912060e052815190820120610100524660a0526200013960e05161010051604080517f8b73c3c69bb8fe3d512ecc4cf759cc79239f7b179b0ffacaa9a75d522b39400f60208201529081019290925260608201524660808201523060a082015260009060c00160405160208183030381529060405280519060200120905090565b60805250503060c052600262000150828262000aaf565b506200015e9050836200020f565b620001698262000250565b6200017481620002f7565b5050506001600160a01b0316610160526200018f8162000338565b506200019b81620004ed565b50505062000c3c565b6040805180820190915260018152603160f81b602082015290565b6000602083511015620001df57620001d78362000556565b905062000209565b82620001f6836200059960201b620018da1760201c565b9062000203908262000aaf565b5060ff90505b92915050565b60065460408051918252602082018390527fc565b045403dc03c2eea82b81a0465edad9e2e7fc4d97e11421c209da93d7a93910160405180910390a1600655565b60008111620002b65760405162461bcd60e51b815260206004820152602760248201527f476f7665726e6f7253657474696e67733a20766f74696e6720706572696f6420604482015266746f6f206c6f7760c81b60648201526084015b60405180910390fd5b60075460408051918252602082018390527f7e3f7f0708a84de9203036abaa450dccc85ad5ff52f78c170f3edb55cf5e8828910160405180910390a1600755565b60085460408051918252602082018390527fccb45da8d5717e6c4544694297c4ba5cf151d455c9bb0ed4fc7a38411bc05461910160405180910390a1600855565b6064811115620003bd5760405162461bcd60e51b815260206004820152604360248201527f476f7665726e6f72566f74657351756f72756d4672616374696f6e3a2071756f60448201527f72756d4e756d657261746f72206f7665722071756f72756d44656e6f6d696e616064820152623a37b960e91b608482015260a401620002ad565b6000620003c96200059c565b90508015801590620003db5750600b54155b156200045657600b6000016040518060400160405280600063ffffffff1681526020016200041484620005d660201b620018dd1760201c565b6001600160e01b0390811690915282546001810184556000938452602093849020835194909301519091166401000000000263ffffffff909316929092179101555b620004ae620004816200046862000645565b65ffffffffffff16620006c760201b6200194a1760201c565b6200049784620005d660201b620018dd1760201c565b600b6200072e60201b620019af179092919060201c565b505060408051828152602081018490527f0553476bf02ef2726e8ce5ced78d63e26e602e4a2257b1f559418e24b4633997910160405180910390a15050565b600c54604080516001600160a01b03928316815291831660208301527f08f74ea46ef7894f65eabfb5e6e695de773a000b47c529ab559178069b226401910160405180910390a1600c80546001600160a01b0319166001600160a01b0392909216919091179055565b600080829050601f8151111562000584578260405163305a27a960e01b8152600401620002ad919062000b7b565b8051620005918262000bcb565b179392505050565b90565b600b5460009015620005cd57620005bf600b6200074b60201b620019ca1760201c565b6001600160e01b0316905090565b600a545b905090565b60006001600160e01b03821115620006415760405162461bcd60e51b815260206004820152602760248201527f53616665436173743a2076616c756520646f65736e27742066697420696e20326044820152663234206269747360c81b6064820152608401620002ad565b5090565b6000610160516001600160a01b03166391ddadf46040518163ffffffff1660e01b8152600401602060405180830381865afa925050508015620006a7575060408051601f3d908101601f19168201909252620006a49181019062000bf0565b60015b620006c257620005d1436200079960201b62001a081760201c565b919050565b600063ffffffff821115620006415760405162461bcd60e51b815260206004820152602660248201527f53616665436173743a2076616c756520646f65736e27742066697420696e203360448201526532206269747360d01b6064820152608401620002ad565b6000806200073e85858562000802565b915091505b935093915050565b805460009080156200078f5762000777836200076960018462000c1a565b600091825260209091200190565b5464010000000090046001600160e01b031662000792565b60005b9392505050565b600065ffffffffffff821115620006415760405162461bcd60e51b815260206004820152602660248201527f53616665436173743a2076616c756520646f65736e27742066697420696e203460448201526538206269747360d01b6064820152608401620002ad565b8254600090819080156200095757600062000824876200076960018562000c1a565b60408051808201909152905463ffffffff8082168084526401000000009092046001600160e01b031660208401529192509087161015620008a85760405162461bcd60e51b815260206004820152601b60248201527f436865636b706f696e743a2064656372656173696e67206b65797300000000006044820152606401620002ad565b805163ffffffff808816911603620008f65784620008cd886200076960018662000c1a565b80546001600160e01b03929092166401000000000263ffffffff90921691909117905562000946565b6040805180820190915263ffffffff80881682526001600160e01b0380881660208085019182528b54600181018d5560008d81529190912094519151909216640100000000029216919091179101555b602001519250839150620007439050565b50506040805180820190915263ffffffff80851682526001600160e01b0380851660208085019182528854600181018a5560008a81529182209551925190931664010000000002919093161792019190915590508162000743565b6001600160a01b0381168114620009c857600080fd5b50565b60008060408385031215620009df57600080fd5b8251620009ec81620009b2565b6020840151909250620009ff81620009b2565b809150509250929050565b634e487b7160e01b600052604160045260246000fd5b600181811c9082168062000a3557607f821691505b60208210810362000a5657634e487b7160e01b600052602260045260246000fd5b50919050565b601f82111562000aaa57600081815260208120601f850160051c8101602086101562000a855750805b601f850160051c820191505b8181101562000aa65782815560010162000a91565b5050505b505050565b81516001600160401b0381111562000acb5762000acb62000a0a565b62000ae38162000adc845462000a20565b8462000a5c565b602080601f83116001811462000b1b576000841562000b025750858301515b600019600386901b1c1916600185901b17855562000aa6565b600085815260208120601f198616915b8281101562000b4c5788860151825594840194600190910190840162000b2b565b508582101562000b6b5787850151600019600388901b60f8161c191681555b5050505050600190811b01905550565b600060208083528351808285015260005b8181101562000baa5785810183015185820160400152820162000b8c565b506000604082860101526040601f19601f8301168501019250505092915050565b8051602080830151919081101562000a565760001960209190910360031b1b16919050565b60006020828403121562000c0357600080fd5b815165ffffffffffff811681146200079257600080fd5b818103818111156200020957634e487b7160e01b600052601160045260246000fd5b60805160a05160c05160e051610100516101205161014051610160516148f462000cbe600039600081816109e1015281816110e001528181611434015281816126100152612804015260006113e0015260006113b601526000612bde01526000612bb601526000612b1101526000612b3b01526000612b6501526148f46000f3fe6080604052600436106102815760003560e01c80637b3c71d31161014f578063c01f9e37116100c1578063ea0217cf1161007a578063ea0217cf14610923578063eb9019d414610943578063ece40cc114610963578063f23a6e6114610983578063f8ce560a146109af578063fc0c546a146109cf57600080fd5b8063c01f9e371461081f578063c28bc2fa14610858578063c59057e41461086b578063d33219b41461088b578063dd4e2ba5146108a9578063deaaa7cc146108ef57600080fd5b80639a802a6d116101135780639a802a6d14610769578063a7713a7014610789578063a890c9101461079e578063ab58fb8e146107be578063b58131b0146107de578063bc197c81146107f357600080fd5b80637b3c71d3146106c15780637d5e81e2146106e157806384b0196e1461070157806391ddadf41461072957806397c3d3341461075557600080fd5b80633932abb1116101f3578063544ffc9c116101ac578063544ffc9c146105c257806354fd4d501461061757806356781388146106415780635f398a141461066157806360c4247f1461068157806370b0f660146106a157600080fd5b80633932abb1146104e15780633bccf4fd146104f65780633e4f49e6146105165780634385963214610543578063452115d61461058d5780634bf5d7e9146105ad57600080fd5b8063143489d011610245578063143489d0146103ab578063150b7a0214610400578063160cbed7146104445780632656227d146104645780632d63f693146104775780632fe3e261146104ad57600080fd5b806301ffc9a7146102f157806302a251a314610326578063034201811461034957806306f3f9e61461036957806306fdde031461038957600080fd5b366102ec573061028f610a03565b6001600160a01b0316146102ea5760405162461bcd60e51b815260206004820152601f60248201527f476f7665726e6f723a206d7573742073656e6420746f206578656375746f720060448201526064015b60405180910390fd5b005b600080fd5b3480156102fd57600080fd5b5061031161030c366004613838565b610a1c565b60405190151581526020015b60405180910390f35b34801561033257600080fd5b5061033b610a2d565b60405190815260200161031d565b34801561035557600080fd5b5061033b610364366004613986565b610a38565b34801561037557600080fd5b506102ea610384366004613a2c565b610b30565b34801561039557600080fd5b5061039e610bba565b60405161031d9190613a95565b3480156103b757600080fd5b506103e86103c6366004613a2c565b600090815260036020526040902054600160401b90046001600160a01b031690565b6040516001600160a01b03909116815260200161031d565b34801561040c57600080fd5b5061042b61041b366004613abd565b630a85bd0160e11b949350505050565b6040516001600160e01b0319909116815260200161031d565b34801561045057600080fd5b5061033b61045f366004613c94565b610c4c565b61033b610472366004613c94565b610e4d565b34801561048357600080fd5b5061033b610492366004613a2c565b6000908152600360205260409020546001600160401b031690565b3480156104b957600080fd5b5061033b7fb3b3f3b703cd84ce352197dcff232b1b5d3cfb2025ce47cf04742d0651f1af8881565b3480156104ed57600080fd5b5061033b610f3f565b34801561050257600080fd5b5061033b610511366004613d23565b610f4a565b34801561052257600080fd5b50610536610531366004613a2c565b610fc0565b60405161031d9190613d87565b34801561054f57600080fd5b5061031161055e366004613daf565b60008281526009602090815260408083206001600160a01b038516845260030190915290205460ff1692915050565b34801561059957600080fd5b5061033b6105a8366004613c94565b610fcb565b3480156105b957600080fd5b5061039e6110dc565b3480156105ce57600080fd5b506105fc6105dd366004613a2c565b6000908152600960205260409020805460018201546002909201549092565b6040805193845260208401929092529082015260600161031d565b34801561062357600080fd5b506040805180820190915260018152603160f81b602082015261039e565b34801561064d57600080fd5b5061033b61065c366004613ddf565b61119e565b34801561066d57600080fd5b5061033b61067c366004613e0b565b6111c7565b34801561068d57600080fd5b5061033b61069c366004613a2c565b611211565b3480156106ad57600080fd5b506102ea6106bc366004613a2c565b6112c2565b3480156106cd57600080fd5b5061033b6106dc366004613e8e565b611349565b3480156106ed57600080fd5b5061033b6106fc366004613ee7565b611391565b34801561070d57600080fd5b506107166113a8565b60405161031d9796959493929190613fd6565b34801561073557600080fd5b5061073e611430565b60405165ffffffffffff909116815260200161031d565b34801561076157600080fd5b50606461033b565b34801561077557600080fd5b5061033b610784366004614038565b6114b9565b34801561079557600080fd5b5061033b6114d0565b3480156107aa57600080fd5b506102ea6107b9366004614090565b6114fa565b3480156107ca57600080fd5b5061033b6107d9366004613a2c565b611581565b3480156107ea57600080fd5b5061033b61161b565b3480156107ff57600080fd5b5061042b61080e3660046140ad565b63bc197c8160e01b95945050505050565b34801561082b57600080fd5b5061033b61083a366004613a2c565b6000908152600360205260409020600101546001600160401b031690565b6102ea610866366004614140565b611626565b34801561087757600080fd5b5061033b610886366004613c94565b611735565b34801561089757600080fd5b50600c546001600160a01b03166103e8565b3480156108b557600080fd5b506040805180820190915260208082527f737570706f72743d627261766f2671756f72756d3d666f722c6162737461696e9082015261039e565b3480156108fb57600080fd5b5061033b7f150214d74d59b7d1e90c73fc22ef3d991dd0a76b046543d4d80ab92d2a50328f81565b34801561092f57600080fd5b506102ea61093e366004613a2c565b61176f565b34801561094f57600080fd5b5061033b61095e366004614183565b6117f6565b34801561096f57600080fd5b506102ea61097e366004613a2c565b611817565b34801561098f57600080fd5b5061042b61099e3660046141af565b63f23a6e6160e01b95945050505050565b3480156109bb57600080fd5b5061033b6109ca366004613a2c565b61189e565b3480156109db57600080fd5b506103e87f000000000000000000000000000000000000000000000000000000000000000081565b6000610a17600c546001600160a01b031690565b905090565b6000610a2782611a6f565b92915050565b6000610a1760075490565b600080610adc610ad47fb3b3f3b703cd84ce352197dcff232b1b5d3cfb2025ce47cf04742d0651f1af888c8c8c8c604051610a74929190614217565b60405180910390208b80519060200120604051602001610ab9959493929190948552602085019390935260ff9190911660408401526060830152608082015260a00190565b60405160208183030381529060405280519060200120611a94565b868686611ac1565b9050610b228a828b8b8b8080601f0160208091040260200160405190810160405280939291908181526020018383808284376000920191909152508d9250611adf915050565b9a9950505050505050505050565b610b38610a03565b6001600160a01b0316336001600160a01b031614610b685760405162461bcd60e51b81526004016102e190614227565b30610b71610a03565b6001600160a01b031614610bae5760008036604051610b91929190614217565b604051809103902090505b80610ba76004611c34565b03610b9c57505b610bb781611cb3565b50565b606060028054610bc99061425e565b80601f0160208091040260200160405190810160405280929190818152602001828054610bf59061425e565b8015610c425780601f10610c1757610100808354040283529160200191610c42565b820191906000526020600020905b815481529060010190602001808311610c2557829003601f168201915b5050505050905090565b600080610c5b86868686611735565b90506004610c6882610fc0565b6007811115610c7957610c79613d71565b14610c965760405162461bcd60e51b81526004016102e190614298565b600c546040805163793d064960e11b815290516000926001600160a01b03169163f27a0c929160048083019260209291908290030181865afa158015610ce0573d6000803e3d6000fd5b505050506040513d601f19601f82011682018060405250810190610d0491906142d9565b600c5460405163b1c5f42760e01b81529192506001600160a01b03169063b1c5f42790610d3e908a908a908a906000908b90600401614380565b602060405180830381865afa158015610d5b573d6000803e3d6000fd5b505050506040513d601f19601f82011682018060405250810190610d7f91906142d9565b6000838152600d602052604080822092909255600c5491516308f2a0bb60e41b81526001600160a01b0390921691638f2a0bb091610dca918b918b918b91908b9089906004016143ce565b600060405180830381600087803b158015610de457600080fd5b505af1158015610df8573d6000803e3d6000fd5b505050507f9a2e42fd6722813d69113e7d0079d3d940171428df7373df9c7f7617cfda2892828242610e2a919061443c565b604080519283526020830191909152015b60405180910390a15095945050505050565b600080610e5c86868686611735565b90506000610e6982610fc0565b90506004816007811115610e7f57610e7f613d71565b1480610e9c57506005816007811115610e9a57610e9a613d71565b145b610eb85760405162461bcd60e51b81526004016102e190614298565b60008281526003602052604090819020600201805460ff19166001179055517f712ae1383f79ac853f8d882153778e0260ef8f03b504e2866e0593e04d2b291f90610f069084815260200190565b60405180910390a1610f1b8288888888611e21565b610f288288888888611ec3565b610f358288888888611ed0565b5095945050505050565b6000610a1760065490565b604080517f150214d74d59b7d1e90c73fc22ef3d991dd0a76b046543d4d80ab92d2a50328f602082015290810186905260ff851660608201526000908190610f9890610ad490608001610ab9565b9050610fb587828860405180602001604052806000815250611f09565b979650505050505050565b6000610a2782611f2c565b600080610fda86868686611735565b90506000610fe782610fc0565b6007811115610ff857610ff8613d71565b146110455760405162461bcd60e51b815260206004820152601c60248201527f476f7665726e6f723a20746f6f206c61746520746f2063616e63656c0000000060448201526064016102e1565b600081815260036020526040902054600160401b90046001600160a01b0316336001600160a01b0316146110c65760405162461bcd60e51b815260206004820152602260248201527f476f7665726e6f723a206f6e6c792070726f706f7365722063616e2063616e63604482015261195b60f21b60648201526084016102e1565b6110d286868686612076565b9695505050505050565b60607f00000000000000000000000000000000000000000000000000000000000000006001600160a01b0316634bf5d7e96040518163ffffffff1660e01b8152600401600060405180830381865afa92505050801561115d57506040513d6000823e601f3d908101601f1916820160405261115a919081019061444f565b60015b611199575060408051808201909152601d81527f6d6f64653d626c6f636b6e756d6265722666726f6d3d64656661756c74000000602082015290565b919050565b6000803390506111bf84828560405180602001604052806000815250611f09565b949350505050565b600080339050610fb587828888888080601f0160208091040260200160405190810160405280939291908181526020018383808284376000920191909152508a9250611adf915050565b600b54600090808203611228575050600a54919050565b6000600b6112376001846144bc565b81548110611247576112476144cf565b60009182526020918290206040805180820190915291015463ffffffff8116808352600160201b9091046001600160e01b0316928201929092529150841061129d57602001516001600160e01b03169392505050565b6112b16112a98561194a565b600b90612084565b6001600160e01b0316949350505050565b6112ca610a03565b6001600160a01b0316336001600160a01b0316146112fa5760405162461bcd60e51b81526004016102e190614227565b30611303610a03565b6001600160a01b0316146113405760008036604051611323929190614217565b604051809103902090505b806113396004611c34565b0361132e57505b610bb781612129565b6000803390506110d286828787878080601f016020809104026020016040519081016040528093929190818152602001838380828437600092019190915250611f0992505050565b600061139f8585858561216a565b95945050505050565b6000606080828080836113db7f000000000000000000000000000000000000000000000000000000000000000083612543565b6114067f00000000000000000000000000000000000000000000000000000000000000006001612543565b60408051600080825260208201909252600f60f81b9b939a50919850469750309650945092509050565b60007f00000000000000000000000000000000000000000000000000000000000000006001600160a01b03166391ddadf46040518163ffffffff1660e01b8152600401602060405180830381865afa9250505080156114ac575060408051601f3d908101601f191682019092526114a9918101906144e5565b60015b61119957610a1743611a08565b60006114c68484846125e7565b90505b9392505050565b600b54600090156114f3576114e5600b6119ca565b6001600160e01b0316905090565b50600a5490565b611502610a03565b6001600160a01b0316336001600160a01b0316146115325760405162461bcd60e51b81526004016102e190614227565b3061153b610a03565b6001600160a01b031614611578576000803660405161155b929190614217565b604051809103902090505b806115716004611c34565b0361156657505b610bb78161267d565b600c546000828152600d602052604080822054905163d45c443560e01b81526004810191909152909182916001600160a01b039091169063d45c443590602401602060405180830381865afa1580156115de573d6000803e3d6000fd5b505050506040513d601f19601f8201168201806040525081019061160291906142d9565b90508060011461161257806114c9565b60009392505050565b6000610a1760085490565b61162e610a03565b6001600160a01b0316336001600160a01b03161461165e5760405162461bcd60e51b81526004016102e190614227565b30611667610a03565b6001600160a01b0316146116a45760008036604051611687929190614217565b604051809103902090505b8061169d6004611c34565b0361169257505b600080856001600160a01b03168585856040516116c2929190614217565b60006040518083038185875af1925050503d80600081146116ff576040519150601f19603f3d011682016040523d82523d6000602084013e611704565b606091505b509150915061172c8282604051806060016040528060288152602001614897602891396126e6565b50505050505050565b60008484848460405160200161174e949392919061450d565b60408051601f19818403018152919052805160209091012095945050505050565b611777610a03565b6001600160a01b0316336001600160a01b0316146117a75760405162461bcd60e51b81526004016102e190614227565b306117b0610a03565b6001600160a01b0316146117ed57600080366040516117d0929190614217565b604051809103902090505b806117e66004611c34565b036117db57505b610bb7816126ff565b60006114c9838361181260408051602081019091526000815290565b6125e7565b61181f610a03565b6001600160a01b0316336001600160a01b03161461184f5760405162461bcd60e51b81526004016102e190614227565b30611858610a03565b6001600160a01b0316146118955760008036604051611878929190614217565b604051809103902090505b8061188e6004611c34565b0361188357505b610bb7816127a0565b6000610a27826127e1565b60006020835110156118c5576118be8361288b565b9050610a27565b816118d084826145a3565b5060ff9050610a27565b90565b60006001600160e01b038211156119465760405162461bcd60e51b815260206004820152602760248201527f53616665436173743a2076616c756520646f65736e27742066697420696e20326044820152663234206269747360c81b60648201526084016102e1565b5090565b600063ffffffff8211156119465760405162461bcd60e51b815260206004820152602660248201527f53616665436173743a2076616c756520646f65736e27742066697420696e203360448201526532206269747360d01b60648201526084016102e1565b6000806119bd8585856128c9565b915091505b935093915050565b80546000908015611612576119f2836119e46001846144bc565b600091825260209091200190565b54600160201b90046001600160e01b03166114c9565b600065ffffffffffff8211156119465760405162461bcd60e51b815260206004820152602660248201527f53616665436173743a2076616c756520646f65736e27742066697420696e203460448201526538206269747360d01b60648201526084016102e1565b60006001600160e01b03198216636e665ced60e01b1480610a275750610a2782612a68565b6000610a27611aa1612b04565b8360405161190160f01b8152600281019290925260228201526042902090565b6000806000611ad287878787612c2f565b91509150610f3581612cf3565b60008581526003602052604081206001611af888610fc0565b6007811115611b0957611b09613d71565b14611b625760405162461bcd60e51b815260206004820152602360248201527f476f7665726e6f723a20766f7465206e6f742063757272656e746c792061637460448201526269766560e81b60648201526084016102e1565b8054600090611b7c9088906001600160401b0316866125e7565b9050611b8b8888888488612e3d565b8351600003611be057866001600160a01b03167fb8e138887d0aa13bab447e82de9d5c1777041ecd21ca36ba824ff1e6c07ddda489888489604051611bd39493929190614662565b60405180910390a2610fb5565b866001600160a01b03167fe2babfbac5889a709b63bb7f598b324e08bc5a4fb9ec647fb3cbc9ec07eb87128988848989604051611c2195949392919061468a565b60405180910390a2979650505050505050565b6000611c4f8254600f81810b600160801b909204900b131590565b15611c6d57604051631ed9509560e11b815260040160405180910390fd5b508054600f0b6000818152600180840160205260408220805492905583546fffffffffffffffffffffffffffffffff191692016001600160801b03169190911790915590565b6064811115611d365760405162461bcd60e51b815260206004820152604360248201527f476f7665726e6f72566f74657351756f72756d4672616374696f6e3a2071756f60448201527f72756d4e756d657261746f72206f7665722071756f72756d44656e6f6d696e616064820152623a37b960e91b608482015260a4016102e1565b6000611d406114d0565b90508015801590611d515750600b54155b15611db5576040805180820190915260008152600b9060208101611d74846118dd565b6001600160e01b039081169091528254600181018455600093845260209384902083519490930151909116600160201b0263ffffffff909316929092179101555b611de2611dd0611dc3611430565b65ffffffffffff1661194a565b611dd9846118dd565b600b91906119af565b505060408051828152602081018490527f0553476bf02ef2726e8ce5ced78d63e26e602e4a2257b1f559418e24b4633997910160405180910390a15050565b30611e2a610a03565b6001600160a01b031614611ebc5760005b8451811015611eba57306001600160a01b0316858281518110611e6057611e606144cf565b60200260200101516001600160a01b031603611eaa57611eaa838281518110611e8b57611e8b6144cf565b6020026020010151805190602001206004612fb790919063ffffffff16565b611eb3816146d0565b9050611e3b565b505b5050505050565b611ebc8585858585612ff3565b30611ed9610a03565b6001600160a01b031614611ebc57600454600f81810b600160801b909204900b1315611ebc576000600455611ebc565b600061139f85858585611f2760408051602081019091526000815290565b611adf565b600080611f3883613067565b90506004816007811115611f4e57611f4e613d71565b14611f595792915050565b6000838152600d602052604090205480611f74575092915050565b600c54604051632ab0f52960e01b8152600481018390526001600160a01b0390911690632ab0f52990602401602060405180830381865afa158015611fbd573d6000803e3d6000fd5b505050506040513d601f19601f82011682018060405250810190611fe191906146e9565b15611ff0575060079392505050565b600c54604051632c258a9f60e11b8152600481018390526001600160a01b039091169063584b153e90602401602060405180830381865afa158015612039573d6000803e3d6000fd5b505050506040513d601f19601f8201168201806040525081019061205d91906146e9565b1561206c575060059392505050565b5060029392505050565b600061139f858585856131a7565b8154600090818160058111156120e157600061209f84613259565b6120a990856144bc565b60008881526020902090915081015463ffffffff90811690871610156120d1578091506120df565b6120dc81600161443c565b92505b505b60006120ef87878585613341565b9050801561211c57612106876119e46001846144bc565b54600160201b90046001600160e01b0316610fb5565b6000979650505050505050565b60065460408051918252602082018390527fc565b045403dc03c2eea82b81a0465edad9e2e7fc4d97e11421c209da93d7a93910160405180910390a1600655565b600033612177818461339f565b6121c35760405162461bcd60e51b815260206004820152601d60248201527f476f7665726e6f723a2070726f706f736572207265737472696374656400000060448201526064016102e1565b60006121cd611430565b65ffffffffffff1690506121df61161b565b6121ee8361095e6001856144bc565b10156122565760405162461bcd60e51b815260206004820152603160248201527f476f7665726e6f723a2070726f706f73657220766f7465732062656c6f7720706044820152701c9bdc1bdcd85b081d1a1c995cda1bdb19607a1b60648201526084016102e1565b600061226b8888888880519060200120611735565b9050865188511461228e5760405162461bcd60e51b81526004016102e19061470b565b85518851146122af5760405162461bcd60e51b81526004016102e19061470b565b60008851116123005760405162461bcd60e51b815260206004820152601860248201527f476f7665726e6f723a20656d7074792070726f706f73616c000000000000000060448201526064016102e1565b6000818152600360205260409020546001600160401b03161561236f5760405162461bcd60e51b815260206004820152602160248201527f476f7665726e6f723a2070726f706f73616c20616c72656164792065786973746044820152607360f81b60648201526084016102e1565b6000612379610f3f565b612383908461443c565b9050600061238f610a2d565b612399908361443c565b90506040518060e001604052806123af84613490565b6001600160401b031681526001600160a01b0387166020820152600060408201526060016123dc83613490565b6001600160401b039081168252600060208084018290526040808501839052606094850183905288835260038252918290208551815492870151878501519186166001600160e01b031990941693909317600160401b6001600160a01b039094168402176001600160e01b0316600160e01b60e09290921c91909102178155938501516080860151908416921c0217600183015560a08301516002909201805460c09094015161ffff1990941692151561ff00191692909217610100931515939093029290921790558a517f7d84a6263ae0d98d3329bd7b46bb4e8d6f98cd35a7adb45c274c8b7fd5ebd5e091859188918e918e918111156124e0576124e06138bb565b60405190808252806020026020018201604052801561251357816020015b60608152602001906001900390816124fe5790505b508d88888f60405161252d9998979695949392919061474c565b60405180910390a1509098975050505050505050565b606060ff8314612556576118be836134f8565b8180546125629061425e565b80601f016020809104026020016040519081016040528092919081815260200182805461258e9061425e565b80156125db5780601f106125b0576101008083540402835291602001916125db565b820191906000526020600020905b8154815290600101906020018083116125be57829003601f168201915b50505050509050610a27565b604051630748d63560e31b81526001600160a01b038481166004830152602482018490526000917f000000000000000000000000000000000000000000000000000000000000000090911690633a46b1a890604401602060405180830381865afa158015612659573d6000803e3d6000fd5b505050506040513d601f19601f820116820180604052508101906114c691906142d9565b600c54604080516001600160a01b03928316815291831660208301527f08f74ea46ef7894f65eabfb5e6e695de773a000b47c529ab559178069b226401910160405180910390a1600c80546001600160a01b0319166001600160a01b0392909216919091179055565b606083156126f55750816114c9565b6114c98383613537565b6000811161275f5760405162461bcd60e51b815260206004820152602760248201527f476f7665726e6f7253657474696e67733a20766f74696e6720706572696f6420604482015266746f6f206c6f7760c81b60648201526084016102e1565b60075460408051918252602082018390527f7e3f7f0708a84de9203036abaa450dccc85ad5ff52f78c170f3edb55cf5e8828910160405180910390a1600755565b60085460408051918252602082018390527fccb45da8d5717e6c4544694297c4ba5cf151d455c9bb0ed4fc7a38411bc05461910160405180910390a1600855565b600060646127ee83611211565b604051632394e7a360e21b8152600481018590527f00000000000000000000000000000000000000000000000000000000000000006001600160a01b031690638e539e8c90602401602060405180830381865afa158015612853573d6000803e3d6000fd5b505050506040513d601f19601f8201168201806040525081019061287791906142d9565b6128819190614823565b610a279190614850565b600080829050601f815111156128b6578260405163305a27a960e01b81526004016102e19190613a95565b80516128c182614872565b179392505050565b825460009081908015612a0f5760006128e7876119e46001856144bc565b60408051808201909152905463ffffffff808216808452600160201b9092046001600160e01b0316602084015291925090871610156129685760405162461bcd60e51b815260206004820152601b60248201527f436865636b706f696e743a2064656372656173696e67206b657973000000000060448201526064016102e1565b805163ffffffff8088169116036129b05784612989886119e46001866144bc565b80546001600160e01b0392909216600160201b0263ffffffff9092169190911790556129ff565b6040805180820190915263ffffffff80881682526001600160e01b0380881660208085019182528b54600181018d5560008d81529190912094519151909216600160201b029216919091179101555b6020015192508391506119c29050565b50506040805180820190915263ffffffff80851682526001600160e01b0380851660208085019182528854600181018a5560008a815291822095519251909316600160201b0291909316179201919091559050816119c2565b600063288ace0360e11b6318df743f60e31b63bf26d89760e01b6379dd796f60e01b6001600160e01b03198616821480612aae57506001600160e01b0319868116908216145b80612ac557506001600160e01b0319868116908516145b80612ae057506001600160e01b03198616630271189760e51b145b806110d257506301ffc9a760e01b6001600160e01b03198716149695505050505050565b6000306001600160a01b037f000000000000000000000000000000000000000000000000000000000000000016148015612b5d57507f000000000000000000000000000000000000000000000000000000000000000046145b15612b8757507f000000000000000000000000000000000000000000000000000000000000000090565b610a17604080517f8b73c3c69bb8fe3d512ecc4cf759cc79239f7b179b0ffacaa9a75d522b39400f60208201527f0000000000000000000000000000000000000000000000000000000000000000918101919091527f000000000000000000000000000000000000000000000000000000000000000060608201524660808201523060a082015260009060c00160405160208183030381529060405280519060200120905090565b6000807f7fffffffffffffffffffffffffffffff5d576e7357a4501ddfe92f46681b20a0831115612c665750600090506003612cea565b6040805160008082526020820180845289905260ff881692820192909252606081018690526080810185905260019060a0016020604051602081039080840390855afa158015612cba573d6000803e3d6000fd5b5050604051601f1901519150506001600160a01b038116612ce357600060019250925050612cea565b9150600090505b94509492505050565b6000816004811115612d0757612d07613d71565b03612d0f5750565b6001816004811115612d2357612d23613d71565b03612d705760405162461bcd60e51b815260206004820152601860248201527f45434453413a20696e76616c6964207369676e6174757265000000000000000060448201526064016102e1565b6002816004811115612d8457612d84613d71565b03612dd15760405162461bcd60e51b815260206004820152601f60248201527f45434453413a20696e76616c6964207369676e6174757265206c656e6774680060448201526064016102e1565b6003816004811115612de557612de5613d71565b03610bb75760405162461bcd60e51b815260206004820152602260248201527f45434453413a20696e76616c6964207369676e6174757265202773272076616c604482015261756560f01b60648201526084016102e1565b60008581526009602090815260408083206001600160a01b0388168452600381019092529091205460ff1615612ec55760405162461bcd60e51b815260206004820152602760248201527f476f7665726e6f72566f74696e6753696d706c653a20766f746520616c726561604482015266191e4818d85cdd60ca1b60648201526084016102e1565b6001600160a01b03851660009081526003820160205260409020805460ff1916600117905560ff8416612f115782816000016000828254612f06919061443c565b90915550611eba9050565b60001960ff851601612f315782816001016000828254612f06919061443c565b60011960ff851601612f515782816002016000828254612f06919061443c565b60405162461bcd60e51b815260206004820152603560248201527f476f7665726e6f72566f74696e6753696d706c653a20696e76616c69642076616044820152746c756520666f7220656e756d20566f74655479706560581b60648201526084016102e1565b8154600160801b90819004600f0b6000818152600180860160205260409091209390935583546001600160801b03908116939091011602179055565b600c5460405163e38335e560e01b81526001600160a01b039091169063e38335e590349061302e908890889088906000908990600401614380565b6000604051808303818588803b15801561304757600080fd5b505af115801561305b573d6000803e3d6000fd5b50505050505050505050565b6000818152600360205260408120600281015460ff161561308b5750600792915050565b6002810154610100900460ff16156130a65750600292915050565b6000838152600360205260408120546001600160401b03169081900361310e5760405162461bcd60e51b815260206004820152601d60248201527f476f7665726e6f723a20756e6b6e6f776e2070726f706f73616c20696400000060448201526064016102e1565b6000613118611430565b65ffffffffffff16905080821061313457506000949350505050565b6000858152600360205260409020600101546001600160401b03168181106131625750600195945050505050565b61316b86613561565b801561318a575060008681526009602052604090208054600190910154115b1561319b5750600495945050505050565b50600395945050505050565b6000806131b6868686866135ad565b6000818152600d60205260409020549091501561139f57600c546000828152600d60205260409081902054905163c4d252f560e01b81526001600160a01b039092169163c4d252f59161320f9160040190815260200190565b600060405180830381600087803b15801561322957600080fd5b505af115801561323d573d6000803e3d6000fd5b5050506000828152600d60205260408120555095945050505050565b60008160000361326b57506000919050565b60006001613278846136b9565b901c6001901b905060018184816132915761329161483a565b048201901c905060018184816132a9576132a961483a565b048201901c905060018184816132c1576132c161483a565b048201901c905060018184816132d9576132d961483a565b048201901c905060018184816132f1576132f161483a565b048201901c905060018184816133095761330961483a565b048201901c905060018184816133215761332161483a565b048201901c90506114c98182858161333b5761333b61483a565b0461374d565b60005b818310156133975760006133588484613763565b60008781526020902090915063ffffffff86169082015463ffffffff16111561338357809250613391565b61338e81600161443c565b93505b50613344565b509392505050565b805160009060348110156133b7576001915050610a27565b82810160131901516001600160a01b031981166b046e0e4dee0dee6cae47a60f60a31b146133ea57600192505050610a27565b6000806133f86028856144bc565b90505b8381101561346f5760008061342f88848151811061341b5761341b6144cf565b01602001516001600160f81b03191661377e565b91509150816134475760019650505050505050610a27565b8060ff166004856001600160a01b0316901b179350505080613468906146d0565b90506133fb565b50856001600160a01b0316816001600160a01b031614935050505092915050565b60006001600160401b038211156119465760405162461bcd60e51b815260206004820152602660248201527f53616665436173743a2076616c756520646f65736e27742066697420696e203660448201526534206269747360d01b60648201526084016102e1565b6060600061350583613810565b604080516020808252818301909252919250600091906020820181803683375050509182525060208101929092525090565b8151156135475781518083602001fd5b8060405162461bcd60e51b81526004016102e19190613a95565b600081815260096020526040812060028101546001820154613583919061443c565b6000848152600360205260409020546135a4906001600160401b031661189e565b11159392505050565b6000806135bc86868686611735565b905060006135c982610fc0565b905060028160078111156135df576135df613d71565b141580156135ff575060068160078111156135fc576135fc613d71565b14155b801561361d5750600781600781111561361a5761361a613d71565b14155b6136695760405162461bcd60e51b815260206004820152601d60248201527f476f7665726e6f723a2070726f706f73616c206e6f742061637469766500000060448201526064016102e1565b60008281526003602052604090819020600201805461ff001916610100179055517f789cf55be980739dad1d0699b93b58e806b51c9d96619bfa8fe0a28abaa7b30c90610e3b9084815260200190565b600080608083901c156136ce57608092831c92015b604083901c156136e057604092831c92015b602083901c156136f257602092831c92015b601083901c1561370457601092831c92015b600883901c1561371657600892831c92015b600483901c1561372857600492831c92015b600283901c1561373a57600292831c92015b600183901c15610a275760010192915050565b600081831061375c57816114c9565b5090919050565b60006137726002848418614850565b6114c99084841661443c565b60008060f883901c602f811180156137995750603a8160ff16105b156137ae57600194602f199091019350915050565b8060ff1660401080156137c4575060478160ff16105b156137d9576001946036199091019350915050565b8060ff1660601080156137ef575060678160ff16105b15613804576001946056199091019350915050565b50600093849350915050565b600060ff8216601f811115610a2757604051632cd44ac360e21b815260040160405180910390fd5b60006020828403121561384a57600080fd5b81356001600160e01b0319811681146114c957600080fd5b803560ff8116811461119957600080fd5b60008083601f84011261388557600080fd5b5081356001600160401b0381111561389c57600080fd5b6020830191508360208285010111156138b457600080fd5b9250929050565b634e487b7160e01b600052604160045260246000fd5b604051601f8201601f191681016001600160401b03811182821017156138f9576138f96138bb565b604052919050565b60006001600160401b0382111561391a5761391a6138bb565b50601f01601f191660200190565b600061393b61393684613901565b6138d1565b905082815283838301111561394f57600080fd5b828260208301376000602084830101529392505050565b600082601f83011261397757600080fd5b6114c983833560208501613928565b60008060008060008060008060e0898b0312156139a257600080fd5b883597506139b260208a01613862565b965060408901356001600160401b03808211156139ce57600080fd5b6139da8c838d01613873565b909850965060608b01359150808211156139f357600080fd5b50613a008b828c01613966565b945050613a0f60808a01613862565b925060a0890135915060c089013590509295985092959890939650565b600060208284031215613a3e57600080fd5b5035919050565b60005b83811015613a60578181015183820152602001613a48565b50506000910152565b60008151808452613a81816020860160208601613a45565b601f01601f19169290920160200192915050565b6020815260006114c96020830184613a69565b6001600160a01b0381168114610bb757600080fd5b60008060008060808587031215613ad357600080fd5b8435613ade81613aa8565b93506020850135613aee81613aa8565b92506040850135915060608501356001600160401b03811115613b1057600080fd5b613b1c87828801613966565b91505092959194509250565b60006001600160401b03821115613b4157613b416138bb565b5060051b60200190565b600082601f830112613b5c57600080fd5b81356020613b6c61393683613b28565b82815260059290921b84018101918181019086841115613b8b57600080fd5b8286015b84811015613baf578035613ba281613aa8565b8352918301918301613b8f565b509695505050505050565b600082601f830112613bcb57600080fd5b81356020613bdb61393683613b28565b82815260059290921b84018101918181019086841115613bfa57600080fd5b8286015b84811015613baf5780358352918301918301613bfe565b600082601f830112613c2657600080fd5b81356020613c3661393683613b28565b82815260059290921b84018101918181019086841115613c5557600080fd5b8286015b84811015613baf5780356001600160401b03811115613c785760008081fd5b613c868986838b0101613966565b845250918301918301613c59565b60008060008060808587031215613caa57600080fd5b84356001600160401b0380821115613cc157600080fd5b613ccd88838901613b4b565b95506020870135915080821115613ce357600080fd5b613cef88838901613bba565b94506040870135915080821115613d0557600080fd5b50613d1287828801613c15565b949793965093946060013593505050565b600080600080600060a08688031215613d3b57600080fd5b85359450613d4b60208701613862565b9350613d5960408701613862565b94979396509394606081013594506080013592915050565b634e487b7160e01b600052602160045260246000fd5b6020810160088310613da957634e487b7160e01b600052602160045260246000fd5b91905290565b60008060408385031215613dc257600080fd5b823591506020830135613dd481613aa8565b809150509250929050565b60008060408385031215613df257600080fd5b82359150613e0260208401613862565b90509250929050565b600080600080600060808688031215613e2357600080fd5b85359450613e3360208701613862565b935060408601356001600160401b0380821115613e4f57600080fd5b613e5b89838a01613873565b90955093506060880135915080821115613e7457600080fd5b50613e8188828901613966565b9150509295509295909350565b60008060008060608587031215613ea457600080fd5b84359350613eb460208601613862565b925060408501356001600160401b03811115613ecf57600080fd5b613edb87828801613873565b95989497509550505050565b60008060008060808587031215613efd57600080fd5b84356001600160401b0380821115613f1457600080fd5b613f2088838901613b4b565b95506020870135915080821115613f3657600080fd5b613f4288838901613bba565b94506040870135915080821115613f5857600080fd5b613f6488838901613c15565b93506060870135915080821115613f7a57600080fd5b508501601f81018713613f8c57600080fd5b613b1c87823560208401613928565b600081518084526020808501945080840160005b83811015613fcb57815187529582019590820190600101613faf565b509495945050505050565b60ff60f81b8816815260e060208201526000613ff560e0830189613a69565b82810360408401526140078189613a69565b606084018890526001600160a01b038716608085015260a0840186905283810360c08501529050610b228185613f9b565b60008060006060848603121561404d57600080fd5b833561405881613aa8565b92506020840135915060408401356001600160401b0381111561407a57600080fd5b61408686828701613966565b9150509250925092565b6000602082840312156140a257600080fd5b81356114c981613aa8565b600080600080600060a086880312156140c557600080fd5b85356140d081613aa8565b945060208601356140e081613aa8565b935060408601356001600160401b03808211156140fc57600080fd5b61410889838a01613bba565b9450606088013591508082111561411e57600080fd5b61412a89838a01613bba565b93506080880135915080821115613e7457600080fd5b6000806000806060858703121561415657600080fd5b843561416181613aa8565b93506020850135925060408501356001600160401b03811115613ecf57600080fd5b6000806040838503121561419657600080fd5b82356141a181613aa8565b946020939093013593505050565b600080600080600060a086880312156141c757600080fd5b85356141d281613aa8565b945060208601356141e281613aa8565b9350604086013592506060860135915060808601356001600160401b0381111561420b57600080fd5b613e8188828901613966565b8183823760009101908152919050565b60208082526018908201527f476f7665726e6f723a206f6e6c79476f7665726e616e63650000000000000000604082015260600190565b600181811c9082168061427257607f821691505b60208210810361429257634e487b7160e01b600052602260045260246000fd5b50919050565b60208082526021908201527f476f7665726e6f723a2070726f706f73616c206e6f74207375636365737366756040820152601b60fa1b606082015260800190565b6000602082840312156142eb57600080fd5b5051919050565b600081518084526020808501945080840160005b83811015613fcb5781516001600160a01b031687529582019590820190600101614306565b600081518084526020808501808196508360051b8101915082860160005b85811015614373578284038952614361848351613a69565b98850198935090840190600101614349565b5091979650505050505050565b60a08152600061439360a08301886142f2565b82810360208401526143a58188613f9b565b905082810360408401526143b9818761432b565b60608401959095525050608001529392505050565b60c0815260006143e160c08301896142f2565b82810360208401526143f38189613f9b565b90508281036040840152614407818861432b565b60608401969096525050608081019290925260a0909101529392505050565b634e487b7160e01b600052601160045260246000fd5b80820180821115610a2757610a27614426565b60006020828403121561446157600080fd5b81516001600160401b0381111561447757600080fd5b8201601f8101841361448857600080fd5b805161449661393682613901565b8181528560208385010111156144ab57600080fd5b61139f826020830160208601613a45565b81810381811115610a2757610a27614426565b634e487b7160e01b600052603260045260246000fd5b6000602082840312156144f757600080fd5b815165ffffffffffff811681146114c957600080fd5b60808152600061452060808301876142f2565b82810360208401526145328187613f9b565b90508281036040840152614546818661432b565b91505082606083015295945050505050565b601f82111561459e57600081815260208120601f850160051c8101602086101561457f5750805b601f850160051c820191505b81811015611eba5782815560010161458b565b505050565b81516001600160401b038111156145bc576145bc6138bb565b6145d0816145ca845461425e565b84614558565b602080601f83116001811461460557600084156145ed5750858301515b600019600386901b1c1916600185901b178555611eba565b600085815260208120601f198616915b8281101561463457888601518255948401946001909101908401614615565b50858210156146525787850151600019600388901b60f8161c191681555b5050505050600190811b01905550565b84815260ff841660208201528260408201526080606082015260006110d26080830184613a69565b85815260ff8516602082015283604082015260a0606082015260006146b260a0830185613a69565b82810360808401526146c48185613a69565b98975050505050505050565b6000600182016146e2576146e2614426565b5060010190565b6000602082840312156146fb57600080fd5b815180151581146114c957600080fd5b60208082526021908201527f476f7665726e6f723a20696e76616c69642070726f706f73616c206c656e67746040820152600d60fb1b606082015260800190565b60006101208b8352602060018060a01b038c16818501528160408501526147758285018c6142f2565b91508382036060850152614789828b613f9b565b915083820360808501528189518084528284019150828160051b850101838c0160005b838110156147da57601f198784030185526147c8838351613a69565b948601949250908501906001016147ac565b505086810360a08801526147ee818c61432b565b9450505050508560c08401528460e08401528281036101008401526148138185613a69565b9c9b505050505050505050505050565b8082028115828204841417610a2757610a27614426565b634e487b7160e01b600052601260045260246000fd5b60008261486d57634e487b7160e01b600052601260045260246000fd5b500490565b805160208083015191908110156142925760001960209190910360031b1b1691905056fe476f7665726e6f723a2072656c617920726576657274656420776974686f7574206d657373616765a264697066735822122005051798d2a412cc03df1d563b9c04053220487708802175b2c4a9b880e569b764736f6c63430008120033",
    "linkReferences": {}
  },
  "methodIdentifiers": {
    "BALLOT_TYPEHASH()": "deaaa7cc",
    "CLOCK_MODE()": "4bf5d7e9",
    "COUNTING_MODE()": "dd4e2ba5",
    "EXTENDED_BALLOT_TYPEHASH()": "2fe3e261",
    "cancel(address[],uint256[],bytes[],bytes32)": "452115d6",
    "castVote(uint256,uint8)": "56781388",
    "castVoteBySig(uint256,uint8,uint8,bytes32,bytes32)": "3bccf4fd",
    "castVoteWithReason(uint256,uint8,string)": "7b3c71d3",
    "castVoteWithReasonAndParams(uint256,uint8,string,bytes)": "5f398a14",
    "castVoteWithReasonAndParamsBySig(uint256,uint8,string,bytes,uint8,bytes32,bytes32)": "03420181",
    "clock()": "91ddadf4",
    "eip712Domain()": "84b0196e",
    "execute(address[],uint256[],bytes[],bytes32)": "2656227d",
    "getVotes(address,uint256)": "eb9019d4",
    "getVotesWithParams(address,uint256,bytes)": "9a802a6d",
    "hasVoted(uint256,address)": "43859632",
    "hashProposal(address[],uint256[],bytes[],bytes32)": "c59057e4",
    "name()": "06fdde03",
    "onERC1155BatchReceived(address,address,uint256[],uint256[],bytes)": "bc197c81",
    "onERC1155Received(address,address,uint256,uint256,bytes)": "f23a6e61",
    "onERC721Received(address,address,uint256,bytes)": "150b7a02",
    "proposalDeadline(uint256)": "c01f9e37",
    "proposalEta(uint256)": "ab58fb8e",
    "proposalProposer(uint256)": "143489d0",
    "proposalSnapshot(uint256)": "2d63f693",
    "proposalThreshold()": "b58131b0",
    "proposalVotes(uint256)": "544ffc9c",
    "propose(address[],uint256[],bytes[],string)": "7d5e81e2",
    "queue(address[],uint256[],bytes[],bytes32)": "160cbed7",
    "quorum(uint256)": "f8ce560a",
    "quorumDenominator()": "97c3d334",
    "quorumNumerator()": "a7713a70",
    "quorumNumerator(uint256)": "60c4247f",
    "relay(address,uint256,bytes)": "c28bc2fa",
    "setProposalThreshold(uint256)": "ece40cc1",
    "setVotingDelay(uint256)": "70b0f660",
    "setVotingPeriod(uint256)": "ea0217cf",
    "state(uint256)": "3e4f49e6",
    "supportsInterface(bytes4)": "01ffc9a7",
    "timelock()": "d33219b4",
    "token()": "fc0c546a",
    "updateQuorumNumerator(uint256)": "06f3f9e6",
    "updateTimelock(address)": "a890c910",
    "version()": "54fd4d50",
    "votingDelay()": "3932abb1",
    "votingPeriod()": "02a251a3"
  },
  "id": 61
}