{
  "abi": [
    {
      "inputs": [
        {
          "internalType": "address",
          "name": "verifierContractAddress",
          "type": "address"
        }
      ],
      "stateMutability": "nonpayable",
      "type": "constructor"
    },
    {
      "inputs": [],
      "name": "InvalidShortString",
      "type": "error"
    },
    {
      "inputs": [
        {
          "internalType": "string",
          "name": "str",
          "type": "string"
        }
      ],
      "name": "StringTooLong",
      "type": "error"
    },
    {
      "anonymous": false,
      "inputs": [
        {
          "indexed": true,
          "internalType": "address",
          "name": "owner",
          "type": "address"
        },
        {
          "indexed": true,
          "internalType": "address",
          "name": "approved",
          "type": "address"
        },
        {
          "indexed": true,
          "internalType": "uint256",
          "name": "tokenId",
          "type": "uint256"
        }
      ],
      "name": "Approval",
      "type": "event"
    },
    {
      "anonymous": false,
      "inputs": [
        {
          "indexed": true,
          "internalType": "address",
          "name": "owner",
          "type": "address"
        },
        {
          "indexed": true,
          "internalType": "address",
          "name": "operator",
          "type": "address"
        },
        {
          "indexed": false,
          "internalType": "bool",
          "name": "approved",
          "type": "bool"
        }
      ],
      "name": "ApprovalForAll",
      "type": "event"
    },
    {
      "anonymous": false,
      "inputs": [
        {
          "indexed": false,
          "internalType": "uint256",
          "name": "_fromTokenId",
          "type": "uint256"
        },
        {
          "indexed": false,
          "internalType": "uint256",
          "name": "_toTokenId",
          "type": "uint256"
        }
      ],
      "name": "BatchMetadataUpdate",
      "type": "event"
    },
    {
      "anonymous": false,
      "inputs": [
        {
          "indexed": true,
          "internalType": "address",
          "name": "delegator",
          "type": "address"
        },
        {
          "indexed": true,
          "internalType": "address",
          "name": "fromDelegate",
          "type": "address"
        },
        {
          "indexed": true,
          "internalType": "address",
          "name": "toDelegate",
          "type": "address"
        }
      ],
      "name": "DelegateChanged",
      "type": "event"
    },
    {
      "anonymous": false,
      "inputs": [
        {
          "indexed": true,
          "internalType": "address",
          "name": "delegate",
          "type": "address"
        },
        {
          "indexed": false,
          "internalType": "uint256",
          "name": "previousBalance",
          "type": "uint256"
        },
        {
          "indexed": false,
          "internalType": "uint256",
          "name": "newBalance",
          "type": "uint256"
        }
      ],
      "name": "DelegateVotesChanged",
      "type": "event"
    },
    {
      "anonymous": false,
      "inputs": [],
      "name": "EIP712DomainChanged",
      "type": "event"
    },
    {
      "anonymous": false,
      "inputs": [
        {
          "indexed": false,
          "internalType": "uint256",
          "name": "_tokenId",
          "type": "uint256"
        }
      ],
      "name": "MetadataUpdate",
      "type": "event"
    },
    {
      "anonymous": false,
      "inputs": [
        {
          "indexed": true,
          "internalType": "address",
          "name": "previousOwner",
          "type": "address"
        },
        {
          "indexed": true,
          "internalType": "address",
          "name": "newOwner",
          "type": "address"
        }
      ],
      "name": "OwnershipTransferred",
      "type": "event"
    },
    {
      "anonymous": false,
      "inputs": [
        {
          "indexed": false,
          "internalType": "address",
          "name": "account",
          "type": "address"
        }
      ],
      "name": "Paused",
      "type": "event"
    },
    {
      "anonymous": false,
      "inputs": [
        {
          "indexed": true,
          "internalType": "address",
          "name": "from",
          "type": "address"
        },
        {
          "indexed": true,
          "internalType": "address",
          "name": "to",
          "type": "address"
        },
        {
          "indexed": true,
          "internalType": "uint256",
          "name": "tokenId",
          "type": "uint256"
        }
      ],
      "name": "Transfer",
      "type": "event"
    },
    {
      "anonymous": false,
      "inputs": [
        {
          "indexed": false,
          "internalType": "address",
          "name": "account",
          "type": "address"
        }
      ],
      "name": "Unpaused",
      "type": "event"
    },
    {
      "inputs": [],
      "name": "CLOCK_MODE",
      "outputs": [
        {
          "internalType": "string",
          "name": "",
          "type": "string"
        }
      ],
      "stateMutability": "view",
      "type": "function"
    },
    {
      "inputs": [],
      "name": "DOMAIN_SEPARATOR",
      "outputs": [
        {
          "internalType": "bytes32",
          "name": "",
          "type": "bytes32"
        }
      ],
      "stateMutability": "view",
      "type": "function"
    },
    {
      "inputs": [
        {
          "internalType": "address",
          "name": "to",
          "type": "address"
        },
        {
          "internalType": "uint256",
          "name": "tokenId",
          "type": "uint256"
        }
      ],
      "name": "approve",
      "outputs": [],
      "stateMutability": "nonpayable",
      "type": "function"
    },
    {
      "inputs": [
        {
          "internalType": "address",
          "name": "owner",
          "type": "address"
        }
      ],
      "name": "balanceOf",
      "outputs": [
        {
          "internalType": "uint256",
          "name": "",
          "type": "uint256"
        }
      ],
      "stateMutability": "view",
      "type": "function"
    },
    {
      "inputs": [
        {
          "internalType": "uint256",
          "name": "tokenId",
          "type": "uint256"
        }
      ],
      "name": "burn",
      "outputs": [],
      "stateMutability": "nonpayable",
      "type": "function"
    },
    {
      "inputs": [],
      "name": "clock",
      "outputs": [
        {
          "internalType": "uint48",
          "name": "",
          "type": "uint48"
        }
      ],
      "stateMutability": "view",
      "type": "function"
    },
    {
      "inputs": [
        {
          "internalType": "address",
          "name": "delegatee",
          "type": "address"
        }
      ],
      "name": "delegate",
      "outputs": [],
      "stateMutability": "nonpayable",
      "type": "function"
    },
    {
      "inputs": [
        {
          "internalType": "address",
          "name": "delegatee",
          "type": "address"
        },
        {
          "internalType": "uint256",
          "name": "nonce",
          "type": "uint256"
        },
        {
          "internalType": "uint256",
          "name": "expiry",
          "type": "uint256"
        },
        {
          "internalType": "uint8",
          "name": "v",
          "type": "uint8"
        },
        {
          "internalType": "bytes32",
          "name": "r",
          "type": "bytes32"
        },
        {
          "internalType": "bytes32",
          "name": "s",
          "type": "bytes32"
        }
      ],
      "name": "delegateBySig",
      "outputs": [],
      "stateMutability": "nonpayable",
      "type": "function"
    },
    {
      "inputs": [
        {
          "internalType": "address",
          "name": "account",
          "type": "address"
        }
      ],
      "name": "delegates",
      "outputs": [
        {
          "internalType": "address",
          "name": "",
          "type": "address"
        }
      ],
      "stateMutability": "view",
      "type": "function"
    },
    {
      "inputs": [],
      "name": "eip712Domain",
      "outputs": [
        {
          "internalType": "bytes1",
          "name": "fields",
          "type": "bytes1"
        },
        {
          "internalType": "string",
          "name": "name",
          "type": "string"
        },
        {
          "internalType": "string",
          "name": "version",
          "type": "string"
        },
        {
          "internalType": "uint256",
          "name": "chainId",
          "type": "uint256"
        },
        {
          "internalType": "address",
          "name": "verifyingContract",
          "type": "address"
        },
        {
          "internalType": "bytes32",
          "name": "salt",
          "type": "bytes32"
        },
        {
          "internalType": "uint256[]",
          "name": "extensions",
          "type": "uint256[]"
        }
      ],
      "stateMutability": "view",
      "type": "function"
    },
    {
      "inputs": [
        {
          "internalType": "uint256",
          "name": "tokenId",
          "type": "uint256"
        }
      ],
      "name": "getApproved",
      "outputs": [
        {
          "internalType": "address",
          "name": "",
          "type": "address"
        }
      ],
      "stateMutability": "view",
      "type": "function"
    },
    {
      "inputs": [
        {
          "internalType": "uint256",
          "name": "timepoint",
          "type": "uint256"
        }
      ],
      "name": "getPastTotalSupply",
      "outputs": [
        {
          "internalType": "uint256",
          "name": "",
          "type": "uint256"
        }
      ],
      "stateMutability": "view",
      "type": "function"
    },
    {
      "inputs": [
        {
          "internalType": "address",
          "name": "account",
          "type": "address"
        },
        {
          "internalType": "uint256",
          "name": "timepoint",
          "type": "uint256"
        }
      ],
      "name": "getPastVotes",
      "outputs": [
        {
          "internalType": "uint256",
          "name": "",
          "type": "uint256"
        }
      ],
      "stateMutability": "view",
      "type": "function"
    },
    {
      "inputs": [
        {
          "internalType": "address",
          "name": "account",
          "type": "address"
        }
      ],
      "name": "getVotes",
      "outputs": [
        {
          "internalType": "uint256",
          "name": "",
          "type": "uint256"
        }
      ],
      "stateMutability": "view",
      "type": "function"
    },
    {
      "inputs": [
        {
          "internalType": "address",
          "name": "owner",
          "type": "address"
        },
        {
          "internalType": "address",
          "name": "operator",
          "type": "address"
        }
      ],
      "name": "isApprovedForAll",
      "outputs": [
        {
          "internalType": "bool",
          "name": "",
          "type": "bool"
        }
      ],
      "stateMutability": "view",
      "type": "function"
    },
    {
      "inputs": [
        {
          "internalType": "uint256[]",
          "name": "pubInputs",
          "type": "uint256[]"
        },
        {
          "internalType": "bytes",
          "name": "proof",
          "type": "bytes"
        },
        {
          "internalType": "string",
          "name": "uri",
          "type": "string"
        }
      ],
      "name": "mint",
      "outputs": [],
      "stateMutability": "nonpayable",
      "type": "function"
    },
    {
      "inputs": [],
      "name": "name",
      "outputs": [
        {
          "internalType": "string",
          "name": "",
          "type": "string"
        }
      ],
      "stateMutability": "view",
      "type": "function"
    },
    {
      "inputs": [
        {
          "internalType": "address",
          "name": "owner",
          "type": "address"
        }
      ],
      "name": "nonces",
      "outputs": [
        {
          "internalType": "uint256",
          "name": "",
          "type": "uint256"
        }
      ],
      "stateMutability": "view",
      "type": "function"
    },
    {
      "inputs": [],
      "name": "owner",
      "outputs": [
        {
          "internalType": "address",
          "name": "",
          "type": "address"
        }
      ],
      "stateMutability": "view",
      "type": "function"
    },
    {
      "inputs": [
        {
          "internalType": "uint256",
          "name": "tokenId",
          "type": "uint256"
        }
      ],
      "name": "ownerOf",
      "outputs": [
        {
          "internalType": "address",
          "name": "",
          "type": "address"
        }
      ],
      "stateMutability": "view",
      "type": "function"
    },
    {
      "inputs": [],
      "name": "pause",
      "outputs": [],
      "stateMutability": "nonpayable",
      "type": "function"
    },
    {
      "inputs": [],
      "name": "paused",
      "outputs": [
        {
          "internalType": "bool",
          "name": "",
          "type": "bool"
        }
      ],
      "stateMutability": "view",
      "type": "function"
    },
    {
      "inputs": [],
      "name": "renounceOwnership",
      "outputs": [],
      "stateMutability": "nonpayable",
      "type": "function"
    },
    {
      "inputs": [
        {
          "internalType": "address",
          "name": "from",
          "type": "address"
        },
        {
          "internalType": "address",
          "name": "to",
          "type": "address"
        },
        {
          "internalType": "uint256",
          "name": "tokenId",
          "type": "uint256"
        }
      ],
      "name": "safeTransferFrom",
      "outputs": [],
      "stateMutability": "nonpayable",
      "type": "function"
    },
    {
      "inputs": [
        {
          "internalType": "address",
          "name": "from",
          "type": "address"
        },
        {
          "internalType": "address",
          "name": "to",
          "type": "address"
        },
        {
          "internalType": "uint256",
          "name": "tokenId",
          "type": "uint256"
        },
        {
          "internalType": "bytes",
          "name": "data",
          "type": "bytes"
        }
      ],
      "name": "safeTransferFrom",
      "outputs": [],
      "stateMutability": "nonpayable",
      "type": "function"
    },
    {
      "inputs": [
        {
          "internalType": "address",
          "name": "operator",
          "type": "address"
        },
        {
          "internalType": "bool",
          "name": "approved",
          "type": "bool"
        }
      ],
      "name": "setApprovalForAll",
      "outputs": [],
      "stateMutability": "nonpayable",
      "type": "function"
    },
    {
      "inputs": [
        {
          "internalType": "bytes4",
          "name": "interfaceId",
          "type": "bytes4"
        }
      ],
      "name": "supportsInterface",
      "outputs": [
        {
          "internalType": "bool",
          "name": "",
          "type": "bool"
        }
      ],
      "stateMutability": "view",
      "type": "function"
    },
    {
      "inputs": [],
      "name": "symbol",
      "outputs": [
        {
          "internalType": "string",
          "name": "",
          "type": "string"
        }
      ],
      "stateMutability": "view",
      "type": "function"
    },
    {
      "inputs": [
        {
          "internalType": "uint256",
          "name": "index",
          "type": "uint256"
        }
      ],
      "name": "tokenByIndex",
      "outputs": [
        {
          "internalType": "uint256",
          "name": "",
          "type": "uint256"
        }
      ],
      "stateMutability": "view",
      "type": "function"
    },
    {
      "inputs": [
        {
          "internalType": "address",
          "name": "owner",
          "type": "address"
        },
        {
          "internalType": "uint256",
          "name": "index",
          "type": "uint256"
        }
      ],
      "name": "tokenOfOwnerByIndex",
      "outputs": [
        {
          "internalType": "uint256",
          "name": "",
          "type": "uint256"
        }
      ],
      "stateMutability": "view",
      "type": "function"
    },
    {
      "inputs": [
        {
          "internalType": "uint256",
          "name": "tokenId",
          "type": "uint256"
        }
      ],
      "name": "tokenURI",
      "outputs": [
        {
          "internalType": "string",
          "name": "",
          "type": "string"
        }
      ],
      "stateMutability": "view",
      "type": "function"
    },
    {
      "inputs": [],
      "name": "totalSupply",
      "outputs": [
        {
          "internalType": "uint256",
          "name": "",
          "type": "uint256"
        }
      ],
      "stateMutability": "view",
      "type": "function"
    },
    {
      "inputs": [
        {
          "internalType": "address",
          "name": "from",
          "type": "address"
        },
        {
          "internalType": "address",
          "name": "to",
          "type": "address"
        },
        {
          "internalType": "uint256",
          "name": "tokenId",
          "type": "uint256"
        }
      ],
      "name": "transferFrom",
      "outputs": [],
      "stateMutability": "nonpayable",
      "type": "function"
    },
    {
      "inputs": [
        {
          "internalType": "address",
          "name": "newOwner",
          "type": "address"
        }
      ],
      "name": "transferOwnership",
      "outputs": [],
      "stateMutability": "nonpayable",
      "type": "function"
    },
    {
      "inputs": [],
      "name": "unpause",
      "outputs": [],
      "stateMutability": "nonpayable",
      "type": "function"
    }
  ],
  "bytecode": {
    "object": "0x6101606040523480156200001257600080fd5b5060405162003c4f38038062003c4f8339810160408190526200003591620002ba565b60408051808201825260088082526714db5a5b1953919560c21b60208084018290528451808601865260018152603160f81b81830152855180870187529384528382019290925284518086019095526005855264534d494c4560d81b9085015291926000620000a5838262000391565b506001620000b4828262000391565b5050600b805460ff1916905550620000cc33620001c1565b620000e7600c836200021b60201b62000f141790919060201c565b610120526200010481600d6200021b602090811b62000f1417901c565b61014052815160208084019190912060e052815190820120610100524660a0526200019260e05161010051604080517f8b73c3c69bb8fe3d512ecc4cf759cc79239f7b179b0ffacaa9a75d522b39400f60208201529081019290925260608201524660808201523060a082015260009060c00160405160208183030381529060405280519060200120905090565b60805250503060c052601380546001600160a01b0319166001600160a01b0392909216919091179055620004d2565b600b80546001600160a01b03838116610100818102610100600160a81b031985161790945560405193909204169182907f8be0079c531659141344cd1fd0a4f28419497f9722a3daafe3b4186f6b6457e090600090a35050565b60006020835110156200023b5762000233836200026b565b905062000265565b826200025283620002b760201b62000f451760201c565b906200025f908262000391565b5060ff90505b92915050565b600080829050601f81511115620002a2578260405163305a27a960e01b81526004016200029991906200045d565b60405180910390fd5b8051620002af82620004ad565b179392505050565b90565b600060208284031215620002cd57600080fd5b81516001600160a01b0381168114620002e557600080fd5b9392505050565b634e487b7160e01b600052604160045260246000fd5b600181811c908216806200031757607f821691505b6020821081036200033857634e487b7160e01b600052602260045260246000fd5b50919050565b601f8211156200038c57600081815260208120601f850160051c81016020861015620003675750805b601f850160051c820191505b81811015620003885782815560010162000373565b5050505b505050565b81516001600160401b03811115620003ad57620003ad620002ec565b620003c581620003be845462000302565b846200033e565b602080601f831160018114620003fd5760008415620003e45750858301515b600019600386901b1c1916600185901b17855562000388565b600085815260208120601f198616915b828110156200042e578886015182559484019460019091019084016200040d565b50858210156200044d5787850151600019600388901b60f8161c191681555b5050505050600190811b01905550565b600060208083528351808285015260005b818110156200048c578581018301518582016040015282016200046e565b506000604082860101526040601f19601f8301168501019250505092915050565b80516020808301519190811015620003385760001960209190910360031b1b16919050565b60805160a05160c05160e0516101005161012051610140516137226200052d6000396000610b3101526000610b060152600061130c015260006112e40152600061123f015260006112690152600061129301526137226000f3fe608060405234801561001057600080fd5b50600436106102115760003560e01c80636352211e1161012557806395d89b41116100ad578063b88d4fde1161007c578063b88d4fde14610466578063c3cda52014610479578063c87b56dd1461048c578063e985e9c51461049f578063f2fde38b146104db57600080fd5b806395d89b4114610425578063960c72391461042d5780639ab24eb014610440578063a22cb4651461045357600080fd5b80638456cb59116100f45780638456cb59146103ba57806384b0196e146103c25780638da5cb5b146103dd5780638e539e8c146103f357806391ddadf41461040657600080fd5b80636352211e1461037957806370a082311461038c578063715018a61461039f5780637ecebe00146103a757600080fd5b80633a46b1a8116101a85780634bf5d7e9116101775780634bf5d7e9146103145780634f6ccce71461031c578063587cde1e1461032f5780635c19a95c1461035b5780635c975abb1461036e57600080fd5b80633a46b1a8146102d35780633f4ba83a146102e657806342842e0e146102ee57806342966c681461030157600080fd5b806318160ddd116101e457806318160ddd1461029357806323b872dd146102a55780632f745c59146102b85780633644e515146102cb57600080fd5b806301ffc9a71461021657806306fdde031461023e578063081812fc14610253578063095ea7b31461027e575b600080fd5b610229610224366004612e0d565b6104ee565b60405190151581526020015b60405180910390f35b6102466104ff565b6040516102359190612e7a565b610266610261366004612e8d565b610591565b6040516001600160a01b039091168152602001610235565b61029161028c366004612ec2565b6105b8565b005b6008545b604051908152602001610235565b6102916102b3366004612eec565b6106d2565b6102976102c6366004612ec2565b610704565b61029761079a565b6102976102e1366004612ec2565b6107a9565b61029161083a565b6102916102fc366004612eec565b61084c565b61029161030f366004612e8d565b610867565b610246610898565b61029761032a366004612e8d565b610930565b61026661033d366004612f28565b6001600160a01b039081166000908152600e60205260409020541690565b610291610369366004612f28565b6109c3565b600b5460ff16610229565b610266610387366004612e8d565b6109d2565b61029761039a366004612f28565b610a32565b610291610ab8565b6102976103b5366004612f28565b610aca565b610291610ae8565b6103ca610af8565b6040516102359796959493929190612f7e565b600b5461010090046001600160a01b0316610266565b610297610401366004612e8d565b610b81565b61040e610bfb565b60405165ffffffffffff9091168152602001610235565b610246610c06565b61029161043b3660046130a5565b610c15565b61029761044e366004612f28565b610d08565b61029161046136600461319f565b610d29565b6102916104743660046131d6565b610d34565b61029161048736600461323e565b610d66565b61024661049a366004612e8d565b610e93565b6102296104ad36600461329e565b6001600160a01b03918216600090815260056020908152604080832093909416825291909152205460ff1690565b6102916104e9366004612f28565b610e9e565b60006104f982610f48565b92915050565b60606000805461050e906132d1565b80601f016020809104026020016040519081016040528092919081815260200182805461053a906132d1565b80156105875780601f1061055c57610100808354040283529160200191610587565b820191906000526020600020905b81548152906001019060200180831161056a57829003601f168201915b5050505050905090565b600061059c82610f6d565b506000908152600460205260409020546001600160a01b031690565b60006105c3826109d2565b9050806001600160a01b0316836001600160a01b0316036106355760405162461bcd60e51b815260206004820152602160248201527f4552433732313a20617070726f76616c20746f2063757272656e74206f776e656044820152603960f91b60648201526084015b60405180910390fd5b336001600160a01b0382161480610651575061065181336104ad565b6106c35760405162461bcd60e51b815260206004820152603d60248201527f4552433732313a20617070726f76652063616c6c6572206973206e6f7420746f60448201527f6b656e206f776e6572206f7220617070726f76656420666f7220616c6c000000606482015260840161062c565b6106cd8383610fcc565b505050565b6106dd335b8261103a565b6106f95760405162461bcd60e51b815260040161062c90613305565b6106cd8383836110b9565b600061070f83610a32565b82106107715760405162461bcd60e51b815260206004820152602b60248201527f455243373231456e756d657261626c653a206f776e657220696e646578206f7560448201526a74206f6620626f756e647360a81b606482015260840161062c565b506001600160a01b03919091166000908152600660209081526040808320938352929052205490565b60006107a4611232565b905090565b60006107b3610bfb565b65ffffffffffff1682106108005760405162461bcd60e51b81526020600482015260146024820152730566f7465733a20667574757265206c6f6f6b75760641b604482015260640161062c565b61082a61080c8361135d565b6001600160a01b0385166000908152600f60205260409020906113c6565b6001600160e01b03169392505050565b61084261147b565b61084a6114db565b565b6106cd83838360405180602001604052806000815250610d34565b610870336106d7565b61088c5760405162461bcd60e51b815260040161062c90613305565b6108958161152d565b50565b6060436108a3610bfb565b65ffffffffffff16146108f85760405162461bcd60e51b815260206004820152601860248201527f566f7465733a2062726f6b656e20636c6f636b206d6f64650000000000000000604482015260640161062c565b5060408051808201909152601d81527f6d6f64653d626c6f636b6e756d6265722666726f6d3d64656661756c74000000602082015290565b600061093b60085490565b821061099e5760405162461bcd60e51b815260206004820152602c60248201527f455243373231456e756d657261626c653a20676c6f62616c20696e646578206f60448201526b7574206f6620626f756e647360a01b606482015260840161062c565b600882815481106109b1576109b1613352565b90600052602060002001549050919050565b336109ce8183611536565b5050565b6000818152600260205260408120546001600160a01b0316806104f95760405162461bcd60e51b8152602060048201526018602482015277115490cdcc8c4e881a5b9d985b1a59081d1bdad95b88125160421b604482015260640161062c565b60006001600160a01b038216610a9c5760405162461bcd60e51b815260206004820152602960248201527f4552433732313a2061646472657373207a65726f206973206e6f7420612076616044820152683634b21037bbb732b960b91b606482015260840161062c565b506001600160a01b031660009081526003602052604090205490565b610ac061147b565b61084a60006115a8565b6001600160a01b0381166000908152601160205260408120546104f9565b610af061147b565b61084a611602565b600060608082808083610b2c7f0000000000000000000000000000000000000000000000000000000000000000600c61163f565b610b577f0000000000000000000000000000000000000000000000000000000000000000600d61163f565b60408051600080825260208201909252600f60f81b9b939a50919850469750309650945092509050565b6000610b8b610bfb565b65ffffffffffff168210610bd85760405162461bcd60e51b81526020600482015260146024820152730566f7465733a20667574757265206c6f6f6b75760641b604482015260640161062c565b610bec610be48361135d565b6010906113c6565b6001600160e01b031692915050565b60006107a4436116e3565b60606001805461050e906132d1565b610c1d61147b565b601354604051630bd205a960e41b81526001600160a01b039091169063bd205a9090610c4f9086908690600401613368565b602060405180830381865afa158015610c6c573d6000803e3d6000fd5b505050506040513d601f19601f82011682018060405250810190610c909190613396565b610cd35760405162461bcd60e51b81526020600482015260146024820152734661696c656420766572696669636174696f6e2160601b604482015260640161062c565b6000610cde60125490565b9050610cee601280546001019055565b610cf8338261174a565b610d028183611764565b50505050565b6001600160a01b0381166000908152600f60205260408120610bec9061182f565b6109ce33838361186a565b610d3e338361103a565b610d5a5760405162461bcd60e51b815260040161062c90613305565b610d0284848484611938565b83421115610db65760405162461bcd60e51b815260206004820152601860248201527f566f7465733a207369676e617475726520657870697265640000000000000000604482015260640161062c565b604080517fe48329057bfd03d55e49b547132e39cffd9c1820ad7b9d4c5307691425d15adf60208201526001600160a01b038816918101919091526060810186905260808101859052600090610e3090610e289060a0016040516020818303038152906040528051906020012061196b565b858585611998565b9050610e3b816119c0565b8614610e805760405162461bcd60e51b8152602060048201526014602482015273566f7465733a20696e76616c6964206e6f6e636560601b604482015260640161062c565b610e8a8188611536565b50505050505050565b60606104f9826119e8565b610ea661147b565b6001600160a01b038116610f0b5760405162461bcd60e51b815260206004820152602660248201527f4f776e61626c653a206e6577206f776e657220697320746865207a65726f206160448201526564647265737360d01b606482015260840161062c565b610895816115a8565b6000602083511015610f3057610f2983611af0565b90506104f9565b81610f3b8482613401565b5060ff90506104f9565b90565b60006001600160e01b03198216632483248360e11b14806104f957506104f982611b2e565b6000818152600260205260409020546001600160a01b03166108955760405162461bcd60e51b8152602060048201526018602482015277115490cdcc8c4e881a5b9d985b1a59081d1bdad95b88125160421b604482015260640161062c565b600081815260046020526040902080546001600160a01b0319166001600160a01b0384169081179091558190611001826109d2565b6001600160a01b03167f8c5be1e5ebec7d5bd14f71427d1e84f3dd0314c0f7b2291e5b200ac8c7c3b92560405160405180910390a45050565b600080611046836109d2565b9050806001600160a01b0316846001600160a01b0316148061108d57506001600160a01b0380821660009081526005602090815260408083209388168352929052205460ff165b806110b15750836001600160a01b03166110a684610591565b6001600160a01b0316145b949350505050565b826001600160a01b03166110cc826109d2565b6001600160a01b0316146110f25760405162461bcd60e51b815260040161062c906134c1565b6001600160a01b0382166111545760405162461bcd60e51b8152602060048201526024808201527f4552433732313a207472616e7366657220746f20746865207a65726f206164646044820152637265737360e01b606482015260840161062c565b6111618383836001611b53565b826001600160a01b0316611174826109d2565b6001600160a01b03161461119a5760405162461bcd60e51b815260040161062c906134c1565b600081815260046020908152604080832080546001600160a01b03199081169091556001600160a01b0387811680865260038552838620805460001901905590871680865283862080546001019055868652600290945282852080549092168417909155905184937fddf252ad1be2c89b69c2b068fc378daa952ba7f163c4a11628f55a4df523b3ef91a46106cd8383836001611b67565b6000306001600160a01b037f00000000000000000000000000000000000000000000000000000000000000001614801561128b57507f000000000000000000000000000000000000000000000000000000000000000046145b156112b557507f000000000000000000000000000000000000000000000000000000000000000090565b6107a4604080517f8b73c3c69bb8fe3d512ecc4cf759cc79239f7b179b0ffacaa9a75d522b39400f60208201527f0000000000000000000000000000000000000000000000000000000000000000918101919091527f000000000000000000000000000000000000000000000000000000000000000060608201524660808201523060a082015260009060c00160405160208183030381529060405280519060200120905090565b600063ffffffff8211156113c25760405162461bcd60e51b815260206004820152602660248201527f53616665436173743a2076616c756520646f65736e27742066697420696e203360448201526532206269747360d01b606482015260840161062c565b5090565b8154600090818160058111156114235760006113e184611b73565b6113eb908561351c565b60008881526020902090915081015463ffffffff908116908716101561141357809150611421565b61141e81600161352f565b92505b505b600061143187878585611c5b565b9050801561146d576114568761144860018461351c565b600091825260209091200190565b5464010000000090046001600160e01b0316611470565b60005b979650505050505050565b600b546001600160a01b0361010090910416331461084a5760405162461bcd60e51b815260206004820181905260248201527f4f776e61626c653a2063616c6c6572206973206e6f7420746865206f776e6572604482015260640161062c565b6114e3611cb9565b600b805460ff191690557f5db9ee0a495bf2e6ff9c91a7834c1ba4fdd244a5e8aa4e537bd38aeae4b073aa335b6040516001600160a01b03909116815260200160405180910390a1565b61089581611d02565b6001600160a01b038281166000818152600e602052604080822080548686166001600160a01b0319821681179092559151919094169392849290917f3134e8a2e6d97e929a7e54011ea5485d7d196dd5f0ba4d4ef95803e8e3fc257f9190a46106cd81836115a386611d42565b611d4d565b600b80546001600160a01b03838116610100818102610100600160a81b031985161790945560405193909204169182907f8be0079c531659141344cd1fd0a4f28419497f9722a3daafe3b4186f6b6457e090600090a35050565b61160a611eb9565b600b805460ff191660011790557f62e78cea01bee320cd4e420270b5ea74000d11b0c9f74754ebdbfc544b05a2586115103390565b606060ff831461165257610f2983611eff565b81805461165e906132d1565b80601f016020809104026020016040519081016040528092919081815260200182805461168a906132d1565b80156116d75780601f106116ac576101008083540402835291602001916116d7565b820191906000526020600020905b8154815290600101906020018083116116ba57829003601f168201915b505050505090506104f9565b600065ffffffffffff8211156113c25760405162461bcd60e51b815260206004820152602660248201527f53616665436173743a2076616c756520646f65736e27742066697420696e203460448201526538206269747360d01b606482015260840161062c565b6109ce828260405180602001604052806000815250611f3e565b6000828152600260205260409020546001600160a01b03166117df5760405162461bcd60e51b815260206004820152602e60248201527f45524337323155524953746f726167653a2055524920736574206f66206e6f6e60448201526d32bc34b9ba32b73a103a37b5b2b760911b606482015260840161062c565b6000828152600a602052604090206117f78282613401565b506040518281527ff8e1a15aba9398e019f0b49df1a4fde98ee17ae345cb5f6b5e2c27f5033e8ce79060200160405180910390a15050565b80546000908015611860576118498361144860018461351c565b5464010000000090046001600160e01b0316611863565b60005b9392505050565b816001600160a01b0316836001600160a01b0316036118cb5760405162461bcd60e51b815260206004820152601960248201527f4552433732313a20617070726f766520746f2063616c6c657200000000000000604482015260640161062c565b6001600160a01b03838116600081815260056020908152604080832094871680845294825291829020805460ff191686151590811790915591519182527f17307eab39ab6107e8899845ad3d59bd9653f200f220920489ca2b5937696c31910160405180910390a3505050565b6119438484846110b9565b61194f84848484611f71565b610d025760405162461bcd60e51b815260040161062c90613542565b60006104f9611978611232565b8360405161190160f01b8152600281019290925260228201526042902090565b60008060006119a98787878761206f565b915091506119b681612133565b5095945050505050565b6001600160a01b03811660009081526011602052604090208054600181018255905b50919050565b60606119f382610f6d565b6000828152600a602052604081208054611a0c906132d1565b80601f0160208091040260200160405190810160405280929190818152602001828054611a38906132d1565b8015611a855780601f10611a5a57610100808354040283529160200191611a85565b820191906000526020600020905b815481529060010190602001808311611a6857829003601f168201915b505050505090506000611aa360408051602081019091526000815290565b90508051600003611ab5575092915050565b815115611ae7578082604051602001611acf929190613594565b60405160208183030381529060405292505050919050565b6110b18461227d565b600080829050601f81511115611b1b578260405163305a27a960e01b815260040161062c9190612e7a565b8051611b26826135c3565b179392505050565b60006001600160e01b0319821663780e9d6360e01b14806104f957506104f9826122f0565b611b5b611eb9565b610d0284848484612340565b610d0284848484612474565b600081600003611b8557506000919050565b60006001611b9284612484565b901c6001901b90506001818481611bab57611bab6135e7565b048201901c90506001818481611bc357611bc36135e7565b048201901c90506001818481611bdb57611bdb6135e7565b048201901c90506001818481611bf357611bf36135e7565b048201901c90506001818481611c0b57611c0b6135e7565b048201901c90506001818481611c2357611c236135e7565b048201901c90506001818481611c3b57611c3b6135e7565b048201901c905061186381828581611c5557611c556135e7565b04612518565b60005b81831015611cb1576000611c72848461252e565b60008781526020902090915063ffffffff86169082015463ffffffff161115611c9d57809250611cab565b611ca881600161352f565b93505b50611c5e565b509392505050565b600b5460ff1661084a5760405162461bcd60e51b815260206004820152601460248201527314185d5cd8589b194e881b9bdd081c185d5cd95960621b604482015260640161062c565b611d0b81612549565b6000818152600a602052604090208054611d24906132d1565b159050610895576000818152600a6020526040812061089591612dad565b60006104f982610a32565b816001600160a01b0316836001600160a01b031614158015611d6f5750600081115b156106cd576001600160a01b03831615611e17576001600160a01b0383166000908152600f602052604081208190611db2906125f6611dad86612602565b61266b565b6001600160e01b031691506001600160e01b03169150846001600160a01b03167fdec2bacdd2f05b59de34da9b523dff8be42e5e38e818c82fdb0bae774387a7248383604051611e0c929190918252602082015260400190565b60405180910390a250505b6001600160a01b038216156106cd576001600160a01b0382166000908152600f602052604081208190611e50906126b4611dad86612602565b6001600160e01b031691506001600160e01b03169150836001600160a01b03167fdec2bacdd2f05b59de34da9b523dff8be42e5e38e818c82fdb0bae774387a7248383604051611eaa929190918252602082015260400190565b60405180910390a25050505050565b600b5460ff161561084a5760405162461bcd60e51b815260206004820152601060248201526f14185d5cd8589b194e881c185d5cd95960821b604482015260640161062c565b60606000611f0c836126c0565b604080516020808252818301909252919250600091906020820181803683375050509182525060208101929092525090565b611f4883836126e8565b611f556000848484611f71565b6106cd5760405162461bcd60e51b815260040161062c90613542565b60006001600160a01b0384163b1561206757604051630a85bd0160e11b81526001600160a01b0385169063150b7a0290611fb59033908990889088906004016135fd565b6020604051808303816000875af1925050508015611ff0575060408051601f3d908101601f19168201909252611fed9181019061363a565b60015b61204d573d80801561201e576040519150601f19603f3d011682016040523d82523d6000602084013e612023565b606091505b5080516000036120455760405162461bcd60e51b815260040161062c90613542565b805181602001fd5b6001600160e01b031916630a85bd0160e11b1490506110b1565b5060016110b1565b6000807f7fffffffffffffffffffffffffffffff5d576e7357a4501ddfe92f46681b20a08311156120a6575060009050600361212a565b6040805160008082526020820180845289905260ff881692820192909252606081018690526080810185905260019060a0016020604051602081039080840390855afa1580156120fa573d6000803e3d6000fd5b5050604051601f1901519150506001600160a01b0381166121235760006001925092505061212a565b9150600090505b94509492505050565b600081600481111561214757612147613657565b0361214f5750565b600181600481111561216357612163613657565b036121b05760405162461bcd60e51b815260206004820152601860248201527f45434453413a20696e76616c6964207369676e61747572650000000000000000604482015260640161062c565b60028160048111156121c4576121c4613657565b036122115760405162461bcd60e51b815260206004820152601f60248201527f45434453413a20696e76616c6964207369676e6174757265206c656e67746800604482015260640161062c565b600381600481111561222557612225613657565b036108955760405162461bcd60e51b815260206004820152602260248201527f45434453413a20696e76616c6964207369676e6174757265202773272076616c604482015261756560f01b606482015260840161062c565b606061228882610f6d565b600061229f60408051602081019091526000815290565b905060008151116122bf5760405180602001604052806000815250611863565b806122c98461288b565b6040516020016122da929190613594565b6040516020818303038152906040529392505050565b60006001600160e01b031982166380ac58cd60e01b148061232157506001600160e01b03198216635b5e139f60e01b145b806104f957506301ffc9a760e01b6001600160e01b03198316146104f9565b60018111156123af5760405162461bcd60e51b815260206004820152603560248201527f455243373231456e756d657261626c653a20636f6e7365637574697665207472604482015274185b9cd9995c9cc81b9bdd081cdd5c1c1bdc9d1959605a1b606482015260840161062c565b816001600160a01b03851661240b5761240681600880546000838152600960205260408120829055600182018355919091527ff3f7a9fe364faab93b216da50a3214154f22a0a2b415b23a84c8169e8b636ee30155565b61242e565b836001600160a01b0316856001600160a01b03161461242e5761242e858261291e565b6001600160a01b03841661244a57612445816129bb565b61246d565b846001600160a01b0316846001600160a01b03161461246d5761246d8482612a6a565b5050505050565b61247f848483612aae565b610d02565b600080608083901c1561249957608092831c92015b604083901c156124ab57604092831c92015b602083901c156124bd57602092831c92015b601083901c156124cf57601092831c92015b600883901c156124e157600892831c92015b600483901c156124f357600492831c92015b600283901c1561250557600292831c92015b600183901c156104f95760010192915050565b60008183106125275781611863565b5090919050565b600061253d600284841861366d565b6118639084841661352f565b6000612554826109d2565b9050612564816000846001611b53565b61256d826109d2565b600083815260046020908152604080832080546001600160a01b03199081169091556001600160a01b0385168085526003845282852080546000190190558785526002909352818420805490911690555192935084927fddf252ad1be2c89b69c2b068fc378daa952ba7f163c4a11628f55a4df523b3ef908390a46109ce816000846001611b67565b6000611863828461368f565b60006001600160e01b038211156113c25760405162461bcd60e51b815260206004820152602760248201527f53616665436173743a2076616c756520646f65736e27742066697420696e20326044820152663234206269747360c81b606482015260840161062c565b6000806126a761268961267c610bfb565b65ffffffffffff1661135d565b61269f6126958861182f565b868863ffffffff16565b879190612b24565b915091505b935093915050565b600061186382846136b6565b600060ff8216601f8111156104f957604051632cd44ac360e21b815260040160405180910390fd5b6001600160a01b03821661273e5760405162461bcd60e51b815260206004820181905260248201527f4552433732313a206d696e7420746f20746865207a65726f2061646472657373604482015260640161062c565b6000818152600260205260409020546001600160a01b0316156127a35760405162461bcd60e51b815260206004820152601c60248201527f4552433732313a20746f6b656e20616c7265616479206d696e74656400000000604482015260640161062c565b6127b1600083836001611b53565b6000818152600260205260409020546001600160a01b0316156128165760405162461bcd60e51b815260206004820152601c60248201527f4552433732313a20746f6b656e20616c7265616479206d696e74656400000000604482015260640161062c565b6001600160a01b038216600081815260036020908152604080832080546001019055848352600290915280822080546001600160a01b0319168417905551839291907fddf252ad1be2c89b69c2b068fc378daa952ba7f163c4a11628f55a4df523b3ef908290a46109ce600083836001611b67565b6060600061289883612b32565b600101905060008167ffffffffffffffff8111156128b8576128b8612fee565b6040519080825280601f01601f1916602001820160405280156128e2576020820181803683370190505b5090508181016020015b600019016f181899199a1a9b1b9c1cb0b131b232b360811b600a86061a8153600a85049450846128ec57509392505050565b6000600161292b84610a32565b612935919061351c565b600083815260076020526040902054909150808214612988576001600160a01b03841660009081526006602090815260408083208584528252808320548484528184208190558352600790915290208190555b5060009182526007602090815260408084208490556001600160a01b039094168352600681528383209183525290812055565b6008546000906129cd9060019061351c565b600083815260096020526040812054600880549394509092849081106129f5576129f5613352565b906000526020600020015490508060088381548110612a1657612a16613352565b6000918252602080832090910192909255828152600990915260408082208490558582528120556008805480612a4e57612a4e6136d6565b6001900381819060005260206000200160009055905550505050565b6000612a7583610a32565b6001600160a01b039093166000908152600660209081526040808320868452825280832085905593825260079052919091209190915550565b6001600160a01b038316612ad057612acd60106126b4611dad84612602565b50505b6001600160a01b038216612af257612aef60106125f6611dad84612602565b50505b6001600160a01b038381166000908152600e60205260408082205485841683529120546106cd92918216911683611d4d565b6000806126a7858585612c0a565b60008072184f03e93ff9f4daa797ed6e38ed64bf6a1f0160401b8310612b715772184f03e93ff9f4daa797ed6e38ed64bf6a1f0160401b830492506040015b6d04ee2d6d415b85acef81000000008310612b9d576d04ee2d6d415b85acef8100000000830492506020015b662386f26fc100008310612bbb57662386f26fc10000830492506010015b6305f5e1008310612bd3576305f5e100830492506008015b6127108310612be757612710830492506004015b60648310612bf9576064830492506002015b600a83106104f95760010192915050565b825460009081908015612d53576000612c288761144860018561351c565b60408051808201909152905463ffffffff8082168084526401000000009092046001600160e01b031660208401529192509087161015612caa5760405162461bcd60e51b815260206004820152601b60248201527f436865636b706f696e743a2064656372656173696e67206b6579730000000000604482015260640161062c565b805163ffffffff808816911603612cf35784612ccb8861144860018661351c565b80546001600160e01b03929092166401000000000263ffffffff909216919091179055612d43565b6040805180820190915263ffffffff80881682526001600160e01b0380881660208085019182528b54600181018d5560008d81529190912094519151909216640100000000029216919091179101555b6020015192508391506126ac9050565b50506040805180820190915263ffffffff80851682526001600160e01b0380851660208085019182528854600181018a5560008a8152918220955192519093166401000000000291909316179201919091559050816126ac565b508054612db9906132d1565b6000825580601f10612dc9575050565b601f01602090049060005260206000209081019061089591905b808211156113c25760008155600101612de3565b6001600160e01b03198116811461089557600080fd5b600060208284031215612e1f57600080fd5b813561186381612df7565b60005b83811015612e45578181015183820152602001612e2d565b50506000910152565b60008151808452612e66816020860160208601612e2a565b601f01601f19169290920160200192915050565b6020815260006118636020830184612e4e565b600060208284031215612e9f57600080fd5b5035919050565b80356001600160a01b0381168114612ebd57600080fd5b919050565b60008060408385031215612ed557600080fd5b612ede83612ea6565b946020939093013593505050565b600080600060608486031215612f0157600080fd5b612f0a84612ea6565b9250612f1860208501612ea6565b9150604084013590509250925092565b600060208284031215612f3a57600080fd5b61186382612ea6565b600081518084526020808501945080840160005b83811015612f7357815187529582019590820190600101612f57565b509495945050505050565b60ff60f81b8816815260e060208201526000612f9d60e0830189612e4e565b8281036040840152612faf8189612e4e565b606084018890526001600160a01b038716608085015260a0840186905283810360c08501529050612fe08185612f43565b9a9950505050505050505050565b634e487b7160e01b600052604160045260246000fd5b604051601f8201601f1916810167ffffffffffffffff8111828210171561302d5761302d612fee565b604052919050565b600082601f83011261304657600080fd5b813567ffffffffffffffff81111561306057613060612fee565b613073601f8201601f1916602001613004565b81815284602083860101111561308857600080fd5b816020850160208301376000918101602001919091529392505050565b6000806000606084860312156130ba57600080fd5b833567ffffffffffffffff808211156130d257600080fd5b818601915086601f8301126130e657600080fd5b81356020828211156130fa576130fa612fee565b8160051b613109828201613004565b928352848101820192828101908b85111561312357600080fd5b958301955b8487101561314157863582529583019590830190613128565b985050508701359250508082111561315857600080fd5b61316487838801613035565b9350604086013591508082111561317a57600080fd5b5061318786828701613035565b9150509250925092565b801515811461089557600080fd5b600080604083850312156131b257600080fd5b6131bb83612ea6565b915060208301356131cb81613191565b809150509250929050565b600080600080608085870312156131ec57600080fd5b6131f585612ea6565b935061320360208601612ea6565b925060408501359150606085013567ffffffffffffffff81111561322657600080fd5b61323287828801613035565b91505092959194509250565b60008060008060008060c0878903121561325757600080fd5b61326087612ea6565b95506020870135945060408701359350606087013560ff8116811461328457600080fd5b9598949750929560808101359460a0909101359350915050565b600080604083850312156132b157600080fd5b6132ba83612ea6565b91506132c860208401612ea6565b90509250929050565b600181811c908216806132e557607f821691505b6020821081036119e257634e487b7160e01b600052602260045260246000fd5b6020808252602d908201527f4552433732313a2063616c6c6572206973206e6f7420746f6b656e206f776e6560408201526c1c881bdc88185c1c1c9bdd9959609a1b606082015260800190565b634e487b7160e01b600052603260045260246000fd5b60408152600061337b6040830185612f43565b828103602084015261338d8185612e4e565b95945050505050565b6000602082840312156133a857600080fd5b815161186381613191565b601f8211156106cd57600081815260208120601f850160051c810160208610156133da5750805b601f850160051c820191505b818110156133f9578281556001016133e6565b505050505050565b815167ffffffffffffffff81111561341b5761341b612fee565b61342f8161342984546132d1565b846133b3565b602080601f831160018114613464576000841561344c5750858301515b600019600386901b1c1916600185901b1785556133f9565b600085815260208120601f198616915b8281101561349357888601518255948401946001909101908401613474565b50858210156134b15787850151600019600388901b60f8161c191681555b5050505050600190811b01905550565b60208082526025908201527f4552433732313a207472616e736665722066726f6d20696e636f72726563742060408201526437bbb732b960d91b606082015260800190565b634e487b7160e01b600052601160045260246000fd5b818103818111156104f9576104f9613506565b808201808211156104f9576104f9613506565b60208082526032908201527f4552433732313a207472616e7366657220746f206e6f6e20455243373231526560408201527131b2b4bb32b91034b6b83632b6b2b73a32b960711b606082015260800190565b600083516135a6818460208801612e2a565b8351908301906135ba818360208801612e2a565b01949350505050565b805160208083015191908110156119e25760001960209190910360031b1b16919050565b634e487b7160e01b600052601260045260246000fd5b6001600160a01b038581168252841660208201526040810183905260806060820181905260009061363090830184612e4e565b9695505050505050565b60006020828403121561364c57600080fd5b815161186381612df7565b634e487b7160e01b600052602160045260246000fd5b60008261368a57634e487b7160e01b600052601260045260246000fd5b500490565b6001600160e01b038281168282160390808211156136af576136af613506565b5092915050565b6001600160e01b038181168382160190808211156136af576136af613506565b634e487b7160e01b600052603160045260246000fdfea2646970667358221220b61c3428172cd5dc81a42d1d302f19d7eab483cc3da1a82a6a4e7fa07a0308b464736f6c63430008120033",
    "linkReferences": {}
  },
  "methodIdentifiers": {
    "CLOCK_MODE()": "4bf5d7e9",
    "DOMAIN_SEPARATOR()": "3644e515",
    "approve(address,uint256)": "095ea7b3",
    "balanceOf(address)": "70a08231",
    "burn(uint256)": "42966c68",
    "clock()": "91ddadf4",
    "delegate(address)": "5c19a95c",
    "delegateBySig(address,uint256,uint256,uint8,bytes32,bytes32)": "c3cda520",
    "delegates(address)": "587cde1e",
    "eip712Domain()": "84b0196e",
    "getApproved(uint256)": "081812fc",
    "getPastTotalSupply(uint256)": "8e539e8c",
    "getPastVotes(address,uint256)": "3a46b1a8",
    "getVotes(address)": "9ab24eb0",
    "isApprovedForAll(address,address)": "e985e9c5",
    "mint(uint256[],bytes,string)": "960c7239",
    "name()": "06fdde03",
    "nonces(address)": "7ecebe00",
    "owner()": "8da5cb5b",
    "ownerOf(uint256)": "6352211e",
    "pause()": "8456cb59",
    "paused()": "5c975abb",
    "renounceOwnership()": "715018a6",
    "safeTransferFrom(address,address,uint256)": "42842e0e",
    "safeTransferFrom(address,address,uint256,bytes)": "b88d4fde",
    "setApprovalForAll(address,bool)": "a22cb465",
    "supportsInterface(bytes4)": "01ffc9a7",
    "symbol()": "95d89b41",
    "tokenByIndex(uint256)": "4f6ccce7",
    "tokenOfOwnerByIndex(address,uint256)": "2f745c59",
    "tokenURI(uint256)": "c87b56dd",
    "totalSupply()": "18160ddd",
    "transferFrom(address,address,uint256)": "23b872dd",
    "transferOwnership(address)": "f2fde38b",
    "unpause()": "3f4ba83a"
  },
  "id": 62
}