{
  "abi": [
    {
      "inputs": [
        {
          "internalType": "uint256[]",
          "name": "pubInputs",
          "type": "uint256[]"
        },
        {
          "internalType": "bytes",
          "name": "proof",
          "type": "bytes"
        }
      ],
      "name": "verify",
      "outputs": [
        {
          "internalType": "bool",
          "name": "",
          "type": "bool"
        }
      ],
      "stateMutability": "view",
      "type": "function"
    }
  ],
  "bytecode": {
    "object": "0x608060405234801561001057600080fd5b5061020f806100206000396000f3fe608060405234801561001057600080fd5b506004361061002b5760003560e01c8063bd205a9014610030575b600080fd5b61004661003e366004610111565b600192915050565b604051901515815260200160405180910390f35b634e487b7160e01b600052604160045260246000fd5b604051601f8201601f1916810167ffffffffffffffff811182821017156100995761009961005a565b604052919050565b600082601f8301126100b257600080fd5b813567ffffffffffffffff8111156100cc576100cc61005a565b6100df601f8201601f1916602001610070565b8181528460208386010111156100f457600080fd5b816020850160208301376000918101602001919091529392505050565b6000806040838503121561012457600080fd5b823567ffffffffffffffff8082111561013c57600080fd5b818501915085601f83011261015057600080fd5b81356020828211156101645761016461005a565b8160051b610173828201610070565b928352848101820192828101908a85111561018d57600080fd5b958301955b848710156101ab57863582529583019590830190610192565b97505050860135925050808211156101c257600080fd5b506101cf858286016100a1565b915050925092905056fea26469706673582212203b6ea2ccadc779b93fd922d71eb767e22a8a4026230f872919b80cd36389c25a64736f6c63430008120033",
    "linkReferences": {}
  },
  "methodIdentifiers": {
    "verify(uint256[],bytes)": "bd205a90"
  },
  "id": 65
}